{
  "_format": "hh-sol-artifact-1",
  "contractName": "MerchantRegistry",
  "sourceName": "contracts/MerchantRegistry.sol",
  "abi": [
    {
      "inputs": [],
      "stateMutability": "nonpayable",
      "type": "constructor"
    },
    {
      "inputs": [],
      "name": "AccessControlBadConfirmation",
      "type": "error"
    },
    {
      "inputs": [
        {
          "internalType": "address",
          "name": "account",
          "type": "address"
        },
        {
          "internalType": "bytes32",
          "name": "neededRole",
          "type": "bytes32"
        }
      ],
      "name": "AccessControlUnauthorizedAccount",
      "type": "error"
    },
    {
      "inputs": [
        {
          "internalType": "address",
          "name": "target",
          "type": "address"
        }
      ],
      "name": "AddressEmptyCode",
      "type": "error"
    },
    {
      "inputs": [
        {
          "internalType": "address",
          "name": "implementation",
          "type": "address"
        }
      ],
      "name": "ERC1967InvalidImplementation",
      "type": "error"
    },
    {
      "inputs": [],
      "name": "ERC1967NonPayable",
      "type": "error"
    },
    {
      "inputs": [],
      "name": "EnforcedPause",
      "type": "error"
    },
    {
      "inputs": [],
      "name": "ExpectedPause",
      "type": "error"
    },
    {
      "inputs": [],
      "name": "FailedCall",
      "type": "error"
    },
    {
      "inputs": [],
      "name": "InvalidFlagReason",
      "type": "error"
    },
    {
      "inputs": [],
      "name": "InvalidInitialization",
      "type": "error"
    },
    {
      "inputs": [],
      "name": "InvalidMerchantId",
      "type": "error"
    },
    {
      "inputs": [],
      "name": "InvalidMerchantName",
      "type": "error"
    },
    {
      "inputs": [],
      "name": "InvalidOwnerAddress",
      "type": "error"
    },
    {
      "inputs": [],
      "name": "InvalidRepId",
      "type": "error"
    },
    {
      "inputs": [
        {
          "internalType": "bytes32",
          "name": "merchantId",
          "type": "bytes32"
        }
      ],
      "name": "MerchantAlreadyExists",
      "type": "error"
    },
    {
      "inputs": [
        {
          "internalType": "bytes32",
          "name": "merchantId",
          "type": "bytes32"
        }
      ],
      "name": "MerchantNotFound",
      "type": "error"
    },
    {
      "inputs": [],
      "name": "NotInitializing",
      "type": "error"
    },
    {
      "inputs": [
        {
          "internalType": "address",
          "name": "owner",
          "type": "address"
        }
      ],
      "name": "OwnerAlreadyHasMerchant",
      "type": "error"
    },
    {
      "inputs": [],
      "name": "ReentrancyGuardReentrantCall",
      "type": "error"
    },
    {
      "inputs": [],
      "name": "UUPSUnauthorizedCallContext",
      "type": "error"
    },
    {
      "inputs": [
        {
          "internalType": "bytes32",
          "name": "slot",
          "type": "bytes32"
        }
      ],
      "name": "UUPSUnsupportedProxiableUUID",
      "type": "error"
    },
    {
      "inputs": [],
      "name": "UnauthorizedAccess",
      "type": "error"
    },
    {
      "anonymous": false,
      "inputs": [
        {
          "indexed": true,
          "internalType": "bytes32",
          "name": "companyId",
          "type": "bytes32"
        },
        {
          "indexed": false,
          "internalType": "string",
          "name": "companyName",
          "type": "string"
        },
        {
          "indexed": false,
          "internalType": "string",
          "name": "templateVersion",
          "type": "string"
        }
      ],
      "name": "CompanyConfigured",
      "type": "event"
    },
    {
      "anonymous": false,
      "inputs": [
        {
          "indexed": false,
          "internalType": "uint64",
          "name": "version",
          "type": "uint64"
        }
      ],
      "name": "Initialized",
      "type": "event"
    },
    {
      "anonymous": false,
      "inputs": [
        {
          "indexed": true,
          "internalType": "bytes32",
          "name": "merchantId",
          "type": "bytes32"
        },
        {
          "indexed": false,
          "internalType": "string",
          "name": "reason",
          "type": "string"
        },
        {
          "indexed": false,
          "internalType": "uint256",
          "name": "timestamp",
          "type": "uint256"
        }
      ],
      "name": "MerchantFlagged",
      "type": "event"
    },
    {
      "anonymous": false,
      "inputs": [
        {
          "indexed": true,
          "internalType": "bytes32",
          "name": "merchantId",
          "type": "bytes32"
        },
        {
          "indexed": true,
          "internalType": "address",
          "name": "ownerAddress",
          "type": "address"
        },
        {
          "indexed": true,
          "internalType": "bytes32",
          "name": "repId",
          "type": "bytes32"
        },
        {
          "indexed": false,
          "internalType": "uint256",
          "name": "timestamp",
          "type": "uint256"
        }
      ],
      "name": "MerchantRegistered",
      "type": "event"
    },
    {
      "anonymous": false,
      "inputs": [
        {
          "indexed": true,
          "internalType": "bytes32",
          "name": "merchantId",
          "type": "bytes32"
        },
        {
          "indexed": false,
          "internalType": "enum IMerchantRegistry.MerchantStatus",
          "name": "newStatus",
          "type": "uint8"
        }
      ],
      "name": "MerchantStatusChanged",
      "type": "event"
    },
    {
      "anonymous": false,
      "inputs": [
        {
          "indexed": false,
          "internalType": "address",
          "name": "account",
          "type": "address"
        }
      ],
      "name": "Paused",
      "type": "event"
    },
    {
      "anonymous": false,
      "inputs": [
        {
          "indexed": true,
          "internalType": "bytes32",
          "name": "merchantId",
          "type": "bytes32"
        },
        {
          "indexed": true,
          "internalType": "bytes32",
          "name": "oldRepId",
          "type": "bytes32"
        },
        {
          "indexed": true,
          "internalType": "bytes32",
          "name": "newRepId",
          "type": "bytes32"
        }
      ],
      "name": "RepAssigned",
      "type": "event"
    },
    {
      "anonymous": false,
      "inputs": [
        {
          "indexed": true,
          "internalType": "bytes32",
          "name": "role",
          "type": "bytes32"
        },
        {
          "indexed": true,
          "internalType": "bytes32",
          "name": "previousAdminRole",
          "type": "bytes32"
        },
        {
          "indexed": true,
          "internalType": "bytes32",
          "name": "newAdminRole",
          "type": "bytes32"
        }
      ],
      "name": "RoleAdminChanged",
      "type": "event"
    },
    {
      "anonymous": false,
      "inputs": [
        {
          "indexed": true,
          "internalType": "bytes32",
          "name": "role",
          "type": "bytes32"
        },
        {
          "indexed": true,
          "internalType": "address",
          "name": "account",
          "type": "address"
        },
        {
          "indexed": true,
          "internalType": "address",
          "name": "sender",
          "type": "address"
        }
      ],
      "name": "RoleGranted",
      "type": "event"
    },
    {
      "anonymous": false,
      "inputs": [
        {
          "indexed": true,
          "internalType": "bytes32",
          "name": "role",
          "type": "bytes32"
        },
        {
          "indexed": true,
          "internalType": "address",
          "name": "account",
          "type": "address"
        },
        {
          "indexed": true,
          "internalType": "address",
          "name": "sender",
          "type": "address"
        }
      ],
      "name": "RoleRevoked",
      "type": "event"
    },
    {
      "anonymous": false,
      "inputs": [
        {
          "indexed": false,
          "internalType": "address",
          "name": "account",
          "type": "address"
        }
      ],
      "name": "Unpaused",
      "type": "event"
    },
    {
      "anonymous": false,
      "inputs": [
        {
          "indexed": true,
          "internalType": "address",
          "name": "implementation",
          "type": "address"
        }
      ],
      "name": "Upgraded",
      "type": "event"
    },
    {
      "inputs": [],
      "name": "ADMIN_ROLE",
      "outputs": [
        {
          "internalType": "bytes32",
          "name": "",
          "type": "bytes32"
        }
      ],
      "stateMutability": "view",
      "type": "function"
    },
    {
      "inputs": [],
      "name": "DEFAULT_ADMIN_ROLE",
      "outputs": [
        {
          "internalType": "bytes32",
          "name": "",
          "type": "bytes32"
        }
      ],
      "stateMutability": "view",
      "type": "function"
    },
    {
      "inputs": [],
      "name": "MANAGER_ROLE",
      "outputs": [
        {
          "internalType": "bytes32",
          "name": "",
          "type": "bytes32"
        }
      ],
      "stateMutability": "view",
      "type": "function"
    },
    {
      "inputs": [],
      "name": "SYSTEM_ROLE",
      "outputs": [
        {
          "internalType": "bytes32",
          "name": "",
          "type": "bytes32"
        }
      ],
      "stateMutability": "view",
      "type": "function"
    },
    {
      "inputs": [],
      "name": "UPGRADER_ROLE",
      "outputs": [
        {
          "internalType": "bytes32",
          "name": "",
          "type": "bytes32"
        }
      ],
      "stateMutability": "view",
      "type": "function"
    },
    {
      "inputs": [],
      "name": "UPGRADE_INTERFACE_VERSION",
      "outputs": [
        {
          "internalType": "string",
          "name": "",
          "type": "string"
        }
      ],
      "stateMutability": "view",
      "type": "function"
    },
    {
      "inputs": [
        {
          "internalType": "bytes32",
          "name": "merchantId",
          "type": "bytes32"
        },
        {
          "internalType": "bytes32",
          "name": "newRepId",
          "type": "bytes32"
        }
      ],
      "name": "assignRep",
      "outputs": [],
      "stateMutability": "nonpayable",
      "type": "function"
    },
    {
      "inputs": [
        {
          "internalType": "bytes32[]",
          "name": "merchantIds",
          "type": "bytes32[]"
        }
      ],
      "name": "batchGetMerchants",
      "outputs": [
        {
          "components": [
            {
              "internalType": "bytes32",
              "name": "merchantId",
              "type": "bytes32"
            },
            {
              "internalType": "address",
              "name": "ownerAddress",
              "type": "address"
            },
            {
              "internalType": "string",
              "name": "businessName",
              "type": "string"
            },
            {
              "internalType": "bytes32",
              "name": "assignedRepId",
              "type": "bytes32"
            },
            {
              "internalType": "enum IMerchantRegistry.MerchantStatus",
              "name": "status",
              "type": "uint8"
            },
            {
              "internalType": "uint256",
              "name": "registrationDate",
              "type": "uint256"
            },
            {
              "internalType": "uint256",
              "name": "totalLifetimeVolume",
              "type": "uint256"
            },
            {
              "internalType": "uint256",
              "name": "totalGrossResiduals",
              "type": "uint256"
            },
            {
              "internalType": "uint256",
              "name": "transactionCount",
              "type": "uint256"
            },
            {
              "internalType": "bool",
              "name": "isFlagged",
              "type": "bool"
            },
            {
              "internalType": "string",
              "name": "flagReason",
              "type": "string"
            }
          ],
          "internalType": "struct IMerchantRegistry.Merchant[]",
          "name": "",
          "type": "tuple[]"
        }
      ],
      "stateMutability": "view",
      "type": "function"
    },
    {
      "inputs": [],
      "name": "companyConfig",
      "outputs": [
        {
          "internalType": "bytes32",
          "name": "companyId",
          "type": "bytes32"
        },
        {
          "internalType": "uint256",
          "name": "deploymentTimestamp",
          "type": "uint256"
        },
        {
          "internalType": "address",
          "name": "deployer",
          "type": "address"
        },
        {
          "internalType": "bool",
          "name": "isActive",
          "type": "bool"
        },
        {
          "internalType": "string",
          "name": "companyName",
          "type": "string"
        },
        {
          "internalType": "string",
          "name": "templateVersion",
          "type": "string"
        }
      ],
      "stateMutability": "view",
      "type": "function"
    },
    {
      "inputs": [
        {
          "internalType": "bytes32",
          "name": "merchantId",
          "type": "bytes32"
        },
        {
          "internalType": "string",
          "name": "reason",
          "type": "string"
        }
      ],
      "name": "flagProblematicAccount",
      "outputs": [],
      "stateMutability": "nonpayable",
      "type": "function"
    },
    {
      "inputs": [],
      "name": "getAggregateStatistics",
      "outputs": [
        {
          "internalType": "uint256",
          "name": "totalVolume",
          "type": "uint256"
        },
        {
          "internalType": "uint256",
          "name": "totalResiduals",
          "type": "uint256"
        },
        {
          "internalType": "uint256",
          "name": "totalTransactions",
          "type": "uint256"
        }
      ],
      "stateMutability": "view",
      "type": "function"
    },
    {
      "inputs": [
        {
          "internalType": "uint256",
          "name": "offset",
          "type": "uint256"
        },
        {
          "internalType": "uint256",
          "name": "limit",
          "type": "uint256"
        }
      ],
      "name": "getAggregateStatisticsPaginated",
      "outputs": [
        {
          "internalType": "uint256",
          "name": "totalVolume",
          "type": "uint256"
        },
        {
          "internalType": "uint256",
          "name": "totalResiduals",
          "type": "uint256"
        },
        {
          "internalType": "uint256",
          "name": "totalTransactions",
          "type": "uint256"
        },
        {
          "internalType": "uint256",
          "name": "processedCount",
          "type": "uint256"
        }
      ],
      "stateMutability": "view",
      "type": "function"
    },
    {
      "inputs": [
        {
          "internalType": "uint256",
          "name": "offset",
          "type": "uint256"
        },
        {
          "internalType": "uint256",
          "name": "limit",
          "type": "uint256"
        }
      ],
      "name": "getAllMerchants",
      "outputs": [
        {
          "internalType": "bytes32[]",
          "name": "",
          "type": "bytes32[]"
        }
      ],
      "stateMutability": "view",
      "type": "function"
    },
    {
      "inputs": [],
      "name": "getDashboardSummary",
      "outputs": [
        {
          "internalType": "uint256",
          "name": "totalMerchants",
          "type": "uint256"
        },
        {
          "internalType": "uint256",
          "name": "activeMerchants",
          "type": "uint256"
        },
        {
          "internalType": "uint256",
          "name": "inactiveMerchants",
          "type": "uint256"
        },
        {
          "internalType": "uint256",
          "name": "flaggedMerchants",
          "type": "uint256"
        }
      ],
      "stateMutability": "view",
      "type": "function"
    },
    {
      "inputs": [
        {
          "internalType": "uint256",
          "name": "offset",
          "type": "uint256"
        },
        {
          "internalType": "uint256",
          "name": "limit",
          "type": "uint256"
        }
      ],
      "name": "getDashboardSummaryPaginated",
      "outputs": [
        {
          "internalType": "uint256",
          "name": "totalMerchants",
          "type": "uint256"
        },
        {
          "internalType": "uint256",
          "name": "activeMerchants",
          "type": "uint256"
        },
        {
          "internalType": "uint256",
          "name": "inactiveMerchants",
          "type": "uint256"
        },
        {
          "internalType": "uint256",
          "name": "flaggedMerchants",
          "type": "uint256"
        },
        {
          "internalType": "uint256",
          "name": "processedCount",
          "type": "uint256"
        }
      ],
      "stateMutability": "view",
      "type": "function"
    },
    {
      "inputs": [
        {
          "internalType": "bytes32",
          "name": "merchantId",
          "type": "bytes32"
        }
      ],
      "name": "getMerchant",
      "outputs": [
        {
          "components": [
            {
              "internalType": "bytes32",
              "name": "merchantId",
              "type": "bytes32"
            },
            {
              "internalType": "address",
              "name": "ownerAddress",
              "type": "address"
            },
            {
              "internalType": "string",
              "name": "businessName",
              "type": "string"
            },
            {
              "internalType": "bytes32",
              "name": "assignedRepId",
              "type": "bytes32"
            },
            {
              "internalType": "enum IMerchantRegistry.MerchantStatus",
              "name": "status",
              "type": "uint8"
            },
            {
              "internalType": "uint256",
              "name": "registrationDate",
              "type": "uint256"
            },
            {
              "internalType": "uint256",
              "name": "totalLifetimeVolume",
              "type": "uint256"
            },
            {
              "internalType": "uint256",
              "name": "totalGrossResiduals",
              "type": "uint256"
            },
            {
              "internalType": "uint256",
              "name": "transactionCount",
              "type": "uint256"
            },
            {
              "internalType": "bool",
              "name": "isFlagged",
              "type": "bool"
            },
            {
              "internalType": "string",
              "name": "flagReason",
              "type": "string"
            }
          ],
          "internalType": "struct IMerchantRegistry.Merchant",
          "name": "",
          "type": "tuple"
        }
      ],
      "stateMutability": "view",
      "type": "function"
    },
    {
      "inputs": [
        {
          "internalType": "address",
          "name": "ownerAddress",
          "type": "address"
        }
      ],
      "name": "getMerchantByOwner",
      "outputs": [
        {
          "internalType": "bytes32",
          "name": "",
          "type": "bytes32"
        }
      ],
      "stateMutability": "view",
      "type": "function"
    },
    {
      "inputs": [],
      "name": "getMerchantCount",
      "outputs": [
        {
          "internalType": "uint256",
          "name": "",
          "type": "uint256"
        }
      ],
      "stateMutability": "view",
      "type": "function"
    },
    {
      "inputs": [
        {
          "internalType": "bytes32",
          "name": "repId",
          "type": "bytes32"
        }
      ],
      "name": "getMerchantsByRep",
      "outputs": [
        {
          "internalType": "bytes32[]",
          "name": "",
          "type": "bytes32[]"
        }
      ],
      "stateMutability": "view",
      "type": "function"
    },
    {
      "inputs": [
        {
          "internalType": "bytes32",
          "name": "role",
          "type": "bytes32"
        }
      ],
      "name": "getRoleAdmin",
      "outputs": [
        {
          "internalType": "bytes32",
          "name": "",
          "type": "bytes32"
        }
      ],
      "stateMutability": "view",
      "type": "function"
    },
    {
      "inputs": [
        {
          "internalType": "bytes32",
          "name": "role",
          "type": "bytes32"
        },
        {
          "internalType": "address",
          "name": "account",
          "type": "address"
        }
      ],
      "name": "grantRole",
      "outputs": [],
      "stateMutability": "nonpayable",
      "type": "function"
    },
    {
      "inputs": [
        {
          "internalType": "bytes32",
          "name": "role",
          "type": "bytes32"
        },
        {
          "internalType": "address",
          "name": "account",
          "type": "address"
        }
      ],
      "name": "hasRole",
      "outputs": [
        {
          "internalType": "bool",
          "name": "",
          "type": "bool"
        }
      ],
      "stateMutability": "view",
      "type": "function"
    },
    {
      "inputs": [
        {
          "internalType": "address",
          "name": "_admin",
          "type": "address"
        }
      ],
      "name": "initialize",
      "outputs": [],
      "stateMutability": "nonpayable",
      "type": "function"
    },
    {
      "inputs": [
        {
          "internalType": "bytes32",
          "name": "merchantId",
          "type": "bytes32"
        }
      ],
      "name": "merchantExists",
      "outputs": [
        {
          "internalType": "bool",
          "name": "",
          "type": "bool"
        }
      ],
      "stateMutability": "view",
      "type": "function"
    },
    {
      "inputs": [],
      "name": "pause",
      "outputs": [],
      "stateMutability": "nonpayable",
      "type": "function"
    },
    {
      "inputs": [],
      "name": "paused",
      "outputs": [
        {
          "internalType": "bool",
          "name": "",
          "type": "bool"
        }
      ],
      "stateMutability": "view",
      "type": "function"
    },
    {
      "inputs": [],
      "name": "proxiableUUID",
      "outputs": [
        {
          "internalType": "bytes32",
          "name": "",
          "type": "bytes32"
        }
      ],
      "stateMutability": "view",
      "type": "function"
    },
    {
      "inputs": [
        {
          "internalType": "string",
          "name": "businessName",
          "type": "string"
        },
        {
          "internalType": "address",
          "name": "ownerAddress",
          "type": "address"
        },
        {
          "internalType": "bytes32",
          "name": "assignedRepId",
          "type": "bytes32"
        }
      ],
      "name": "registerMerchant",
      "outputs": [
        {
          "internalType": "bytes32",
          "name": "",
          "type": "bytes32"
        }
      ],
      "stateMutability": "nonpayable",
      "type": "function"
    },
    {
      "inputs": [
        {
          "internalType": "bytes32",
          "name": "role",
          "type": "bytes32"
        },
        {
          "internalType": "address",
          "name": "callerConfirmation",
          "type": "address"
        }
      ],
      "name": "renounceRole",
      "outputs": [],
      "stateMutability": "nonpayable",
      "type": "function"
    },
    {
      "inputs": [
        {
          "internalType": "bytes32",
          "name": "role",
          "type": "bytes32"
        },
        {
          "internalType": "address",
          "name": "account",
          "type": "address"
        }
      ],
      "name": "revokeRole",
      "outputs": [],
      "stateMutability": "nonpayable",
      "type": "function"
    },
    {
      "inputs": [
        {
          "internalType": "bytes32",
          "name": "_companyId",
          "type": "bytes32"
        },
        {
          "internalType": "string",
          "name": "_companyName",
          "type": "string"
        },
        {
          "internalType": "string",
          "name": "_templateVersion",
          "type": "string"
        }
      ],
      "name": "setCompanyConfig",
      "outputs": [],
      "stateMutability": "nonpayable",
      "type": "function"
    },
    {
      "inputs": [
        {
          "internalType": "bytes4",
          "name": "interfaceId",
          "type": "bytes4"
        }
      ],
      "name": "supportsInterface",
      "outputs": [
        {
          "internalType": "bool",
          "name": "",
          "type": "bool"
        }
      ],
      "stateMutability": "view",
      "type": "function"
    },
    {
      "inputs": [],
      "name": "unpause",
      "outputs": [],
      "stateMutability": "nonpayable",
      "type": "function"
    },
    {
      "inputs": [
        {
          "internalType": "bytes32",
          "name": "merchantId",
          "type": "bytes32"
        },
        {
          "internalType": "uint256",
          "name": "volumeIncrease",
          "type": "uint256"
        },
        {
          "internalType": "uint256",
          "name": "residualIncrease",
          "type": "uint256"
        }
      ],
      "name": "updateMerchantMetrics",
      "outputs": [],
      "stateMutability": "nonpayable",
      "type": "function"
    },
    {
      "inputs": [
        {
          "internalType": "bytes32",
          "name": "merchantId",
          "type": "bytes32"
        },
        {
          "internalType": "enum IMerchantRegistry.MerchantStatus",
          "name": "newStatus",
          "type": "uint8"
        }
      ],
      "name": "updateMerchantStatus",
      "outputs": [],
      "stateMutability": "nonpayable",
      "type": "function"
    },
    {
      "inputs": [
        {
          "internalType": "address",
          "name": "newImplementation",
          "type": "address"
        },
        {
          "internalType": "bytes",
          "name": "data",
          "type": "bytes"
        }
      ],
      "name": "upgradeToAndCall",
      "outputs": [],
      "stateMutability": "payable",
      "type": "function"
    }
  ],
  "bytecode": "0x60a0806040523461011e57604061002b9130608052675957d743bad0fa68602082015260208152610122565b6100496040805167d07e0187e396ee89602082015260208152610122565b61006760408051679608f3c5c4262bb5602082015260208152610122565b5f516020615dd65f395f51905f525460ff8160401c1661010f576002600160401b03196001600160401b038216016100b9575b604051615c7c908161015a823960805181818161364301526136e50152f35b6001600160401b0319166001600160401b039081175f516020615dd65f395f51905f52556040519081527fc7f505b2f371ae2175ee4913f4499e1f2633a7b5936321eed1cdaeb6115181d290602090a15f61009a565b63f92ee8a960e01b5f5260045ffd5b5f80fd5b601f909101601f19168101906001600160401b0382119082101761014557604052565b634e487b7160e01b5f52604160045260245ffdfe6080806040526004361015610012575f80fd5b5f3560e01c90816301ffc9a7146148b457508063248a9ca3146148755780632996f4f61461485b5780632f2ff15d14614811578063359b582d146145c457806336568abe146145805780633cb8e366146140705780633f4ba83a14613f5c57806344d4aeb014613ee5578063469e53e71461395b5780634f1ef2861461369757806352d1902d1461363157806356ff4f3d146130b55780635bf1655614612feb5780635c975abb14612fbd578063616fdcfa14612c2457806375071d2a14612bea57806375b238fc14612bc35780638456cb5914612abc5780638f0a549f146127e957806391d1485414612794578063a217fddf1461277a578063a42dce5e14612335578063ad3cb1cc146122ee578063b0622dec14611f67578063b0edcf1a14611999578063c4d66de814611473578063c9566c6e146111ad578063d547741f1461115e578063e4b0b21b14610f8a578063e841cdcd1461051f578063ec87621c146104e5578063ecc98c111461029f578063f23353b414610277578063f72c0d8b1461023d5763f8a1554d146101a8575f80fd5b34610239576020366003190112610239576101c161496c565b6101df6040805167891543eceed4379e602082015260208152614a70565b6101fd604080516763b635f359e43d66602082015260208152614a70565b61021b6040805167bb7db2882781afba602082015260208152614a70565b60018060a01b03165f526001602052602060405f2054604051908152f35b5f80fd5b34610239575f3660031901126102395760206040517f189ab7a9244df0848122154315af71fe140f3db0fe014031783b0946b8c9d2e38152f35b34610239576020366003190112610239576020610295600435615610565b6040519015158152f35b34610239576040366003190112610239576004356102d1604080516771fd7ae5d5fdaee5602082015260208152614a70565b6102d9615ab6565b6102f760408051675aa8d79ed41c476e602082015260208152614a70565b610315604080516766cd16fab79f1fbb602082015260208152614a70565b6103336040805167878bffb610b5fc27602082015260208152614a70565b6103516040805167c7d025121b69bf9e602082015260208152614a70565b61036f6040805167af25309067045576602082015260208152614a70565b806103a15761039260408051674ebabce7fb6e456e602082015260208152614a70565b637ccfccc960e11b5f5260045ffd5b6103bf6040805167282e2b4b2fa69429602082015260208152614a70565b6103dd6040805167b06f0eb82d8bee15602082015260208152614a70565b6103fb6040805167533c346dd888fd61602082015260208152614a70565b61040481615610565b61043857610426604080516746aae52442beb766602082015260208152614a70565b637414769760e01b5f5260045260245ffd5b6104e39061045a60408051677cd8a1984da83a8f602082015260208152614a70565b6104786040805167d59190d6e1e376b6602082015260208152614a70565b6104966040805167987bd2211514c11d602082015260208152614a70565b6104b46040805167998b47da4fa16734602082015260208152614a70565b6104bc6156d9565b6104da60408051672d721ce7a58aedf4602082015260208152614a70565b60243590615099565b005b34610239575f3660031901126102395760206040517f241ecf16d79d0f8dbfb92cbc07fe17840425976cf0667f022fe9877caa831b088152f35b34610239576060366003190112610239576004356001600160401b0381116102395761054f903690600401614ae2565b610557614956565b916044356105796040805167c165a7e90294ad94602082015260208152614a70565b610581615ab6565b61059f60408051676fd3d50cdf091711602082015260208152614a70565b6105bd604080516757da4856b62123c2602082015260208152614a70565b60025f516020615be75f395f51905f525414610f7b5760025f516020615be75f395f51905f5255610602604080516750fb9883d88180fd602082015260208152614a70565b6106206040805167ce9fcae52d9297e8602082015260208152614a70565b6106286156d9565b61064660408051671c142d2a5ba7be47602082015260208152614a70565b6106646040805167bb6d7e77ee717670602082015260208152614a70565b610682604080516777d8c48183bf8238602082015260208152614a70565b6106a06040805167a6d1f3d64d8374bf602082015260208152614a70565b821580610f52575b8015610f1e575b156106ff576106d26040805167ed1a17cd1b2d246b602082015260208152614a70565b6106f060408051673dd71a57ae356dac602082015260208152614a70565b63ecfee17f60e01b5f5260045ffd5b61071d6040805167fca992fdb20a5ebf602082015260208152614a70565b61073b60408051676fe55456a26462a8602082015260208152614a70565b6107596040805167149bc6d29da005b9602082015260208152614a70565b6001600160a01b038416938461079657610787604080516703ac92c2a41a17d8602082015260208152614a70565b633649397d60e21b5f5260045ffd5b6107b460408051671a897f5f0079cb79602082015260208152614a70565b6107d26040805167aa9d0eec50a6b293602082015260208152614a70565b6107f060408051675b6a7c5c7b9ce3ff602082015260208152614a70565b81610822576108136040805167b3cf2ce35ef61a61602082015260208152614a70565b63456f7a6760e11b5f5260045ffd5b610840604080516780fa8bf2e6194891602082015260208152614a70565b61085e604080516767df369900822d81602082015260208152614a70565b61087c6040805167af776033cc77a5e0602082015260208152614a70565b5f85815260016020526040902054156108dd57846108ad60408051669d88dfdf2f519d602082015260208152614a70565b6108cb6040805167b4d6c1a6bf12dd4a602082015260208152614a70565b630bc7908f60e41b5f5260045260245ffd5b84906108fd6040805167484f1379cec8e8e4602082015260208152614a70565b61091b6040805167037f8995f8247c48602082015260208152614a70565b61093960408051670ad47a03ebe71db8602082015260208152614a70565b60405160208101914283526bffffffffffffffffffffffff199060601b1660408201528585605483013761097f6020605483898101438382015203018084520182614a70565b519020926109a16040805167ad54d75e13bcd5d2602082015260208152614a70565b6109bf60408051671704d015c4ed34c4602082015260208152614a70565b5f8481526020819052604090206005015415610a2457836109f460408051678b7b96ff3a1666f0602082015260208152614a70565b610a1260408051673635f72c94348741602082015260208152614a70565b63f7640c4b60e01b5f5260045260245ffd5b8390610a446040805167348aa4d30395a744602082015260208152614a70565b6040516020810167b9e02d7020add7199052602081526040610a6591614a70565b60405190610a7282614a54565b82825260208201968488523690610a8892614aac565b9060408101918252606081019185835260808201925f845260a083019342855260c084015f815260e08501915f83526101008601935f85526101208701955f875260209d8e809b6040519c610add908e614a70565b5f8d526101408b019c8d525f525f905260405f20985189556001890190600160a01b600190039051166bffffffffffffffffffffffff60a01b82541617905560028801905180516001600160401b038111610e18578f610b4782610b418654614b0f565b86614fec565b80601f8311600114610eb957508190610b75935f92610eae575b50508160011b915f199060031b1c19161790565b90555b51600387015551956004871015610e9a57610b98600a976004880161505b565b516005860155516006850155516007840155516008830155600982019051151560ff801983541691161790550190518051906001600160401b038211610e1857610bec82610be68554614b0f565b85614fec565b8690601f8311600114610e3757610c1992915f9183610e2c5750508160011b915f199060031b1c19161790565b90555b610c3860408051678073e7042b8ff0ca87820152868152614a70565b805f52600184528260405f2055610c61604080516750140943c91d46b887820152868152614a70565b600554835f526003855260405f2055610c8c60408051672cffed9ae38d380a87820152868152614a70565b610ca860408051676ab0eb46b8997b6487820152868152614a70565b600554600160401b811015610e1857610ce3610ccd8260018794016005556005614c44565b819391549060031b91821b915f19901b19161790565b9055610d016040805167325569775bc0e84687820152868152614a70565b815f526002845260405f2054835f526004855260405f2055610d356040805167bc571dbfdebad89e87820152868152614a70565b610d5160408051677e9dfc2a3851d38487820152868152614a70565b815f5260028452610d658360405f20615073565b610d816040805167f5dad6345f5948f987820152868152614a70565b610d9d6040805167f0b5c3a4da53db2187820152868152614a70565b827f4086243f0046b2bbae4747945aa0ddc0a9ba2f74ec9e34e04909d84d59d6654985604051428152a4610de3604080516763659f886ded61b085820152848152614a70565b610dff604080516789dda97709b7280985820152848152614a70565b60015f516020615be75f395f51905f5255604051908152f35b634e487b7160e01b5f52604160045260245ffd5b015190508880610b61565b90601f19831691845f52885f20925f5b8a828210610e84575050908460019594939210610e6c575b505050811b019055610c1c565b01515f1960f88460031b161c19169055878080610e5f565b6001859682939686015181550195019301610e47565b634e487b7160e01b5f52602160045260245ffd5b015190505f80610b61565b9192601f198416855f52835f20935f905b828210610f06575050908460019594939210610eee575b505050811b019055610b78565b01515f1960f88460031b161c191690555f8080610ee1565b80600186978294978701518155019601940190610eca565b506064831180156106af5750610f4b604080516765077b7cd8b8436360c11b602082015260208152614a70565b60016106af565b50610f746040805167bf5dc16bcd8bb0d360c01b602082015260208152614a70565b60016106a8565b633ee5aeb560e01b5f5260045ffd5b34610239575f36600319011261023957600654600754906008546040515f8160095491610fb683614b0f565b808352926001811690811561113f57506001146110e0575b610fda92500382614a70565b604051915f600a54610feb81614b0f565b80865290600181169081156110bd5750600114611064575b509160ff6110529261101b8661106097960386614a70565b6040519788978852602088015260018060a01b038116604088015260a01c161515606086015260c0608086015260c0850190614982565b9083820360a0850152614982565b0390f35b600a5f90815291507fc65a7bb8d6351c1cf70c95a316cc6a92839c986682d98bc35f958f4883f9d2a85b8183106110a3575050830160200160ff611003565b6001816020929493945483858a010152019101919061108e565b60ff191660208088019190915291151560051b8601909101915060ff9050611003565b5060095f90815290917f6e1540171b6c0c960b71a7020d9f60077f6af931a8bbf590da0223dacf75c7af5b818310611123575050906020610fda92820101610fce565b602091935080600191548385880101520191019091839261110b565b60209250610fda94915060ff191682840152151560051b820101610fce565b34610239576040366003190112610239576104e360043561117d614956565b906111a86111a3825f525f516020615ba75f395f51905f52602052600160405f20015490565b615748565b615a1a565b34610239576020366003190112610239576004356001600160401b03811161023957366023820112156102395780600401356001600160401b038111610239573660248260051b840101116102395761121a6040805167859314b594e485cc602082015260208152614a70565b61123860408051677e38429626a8a160602082015260208152614a70565b61125660408051678c5387aaad00cfae602082015260208152614a70565b61125f81614be7565b9161126d6040519384614a70565b818352601f1961127c83614be7565b015f5b81811061145c5750506112a660408051670e998825e77d3c98602082015260208152614a70565b6112c46040805167c85ccf8295467c28602082015260208152614a70565b5f5b828110156113b9576001906112ef6040805167cb22409e1fafaf57602082015260208152614a70565b60248160051b840101355f525f60205260405f20611397600a6040519261131584614a54565b80548452858060a01b038682015416602085015261133560028201614b47565b60408501526003810154606085015261135860ff60048301541660808601614fe0565b600581015460a0850152600681015460c0850152600781015460e0850152600881015461010085015260ff600982015416151561012085015201614b47565b6101408201526113a78287614c59565b526113b28186614c59565b50016112c6565b836113d860408051676fe4c1c271e7f20e602082015260208152614a70565b6113f66040805167aee35bb5f94704d2602082015260208152614a70565b6040518091602082016020835281518091526040830190602060408260051b8601019301915f905b82821061142d57505050500390f35b9193600191939550602061144c8192603f198a820301865288516149b3565b960192019201859493919261141e565b602090611467614f8f565b8282880101520161127f565b346102395760203660031901126102395761148c61496c565b6114aa60408051679adef34e04a729f5602082015260208152614a70565b5f516020615c275f395f51905f525460ff8160401c1615916001600160401b03821680159081611991575b6001149081611987575b15908161197e575b5061196f5767ffffffffffffffff1982166001175f516020615c275f395f51905f52556117479183611943575b5061153360408051677e31116a2bf87e13602082015260208152614a70565b6115516040805167e4b0bfe497afabda602082015260208152614a70565b61156f6040805167fcf387fc8ff8d81b602082015260208152614a70565b61158d60408051673d3003f9ea66670d602082015260208152614a70565b611595615add565b6115b360408051679d32bea2ae5be560602082015260208152614a70565b6115d16040805167e624f8a9c673d156602082015260208152614a70565b6115d9615add565b6115f760408051677f083296b34341f8602082015260208152614a70565b6116156040805167b9a4080796d944d3602082015260208152614a70565b61161d615add565b611625615add565b60015f516020615be75f395f51905f52556116546040805167697dcbf4d5bbd4c6602082015260208152614a70565b6116726040805167107d3e15931c0b62602082015260208152614a70565b61167a615add565b6116986040805167f993c3937b7b8815602082015260208152614a70565b6116b660408051673e9cce5288c88c6f602082015260208152614a70565b6116bf8161578e565b506116de60408051675125c7685b8b7ad2602082015260208152614a70565b6116fc6040805167b4323f10e2272cf6602082015260208152614a70565b6117058161582a565b506117246040805167725456d75e9b18b1602082015260208152614a70565b61174260408051674274a282d795d1e0602082015260208152614a70565b6158d0565b506117666040805167262b0981e07b8558602082015260208152614a70565b6117846040805167e1b3a6e9d166da93602082015260208152614a70565b7f241ecf16d79d0f8dbfb92cbc07fe17840425976cf0667f022fe9877caa831b085f8181525f516020615ba75f395f51905f526020527f06484cc59dc38e4f67c31122333a17ca81b3ca18cdf02bfc298072fa52b0316b80545f516020615c075f395f51905f5291829055909290917fbd79b86ffe0ab8e8776151514217cd7cacd52c909f66475c3af44e129f0b00ff9080a46118356040805167f31a380bd21ec9c2602082015260208152614a70565b6118536040805167d436e0401d32183b602082015260208152614a70565b7f5719df9ef2c4678b547f89e4f5ae410dbf400fc51cf3ded434c55f6adea2c43f5f8181525f516020615ba75f395f51905f526020527f021e7b47d957252238e482ce63807c8c87d29d066c819e84063657a50c13de0180545f516020615c075f395f51905f5291829055909290917fbd79b86ffe0ab8e8776151514217cd7cacd52c909f66475c3af44e129f0b00ff9080a46118ec57005b68ff0000000000000000195f516020615c275f395f51905f5254165f516020615c275f395f51905f52557fc7f505b2f371ae2175ee4913f4499e1f2633a7b5936321eed1cdaeb6115181d2602060405160018152a1005b68ffffffffffffffffff191668010000000000000001175f516020615c275f395f51905f525583611514565b63f92ee8a960e01b5f5260045ffd5b905015846114e7565b303b1591506114df565b8491506114d5565b34610239576040366003190112610239576004356024356001600160401b038111610239576119cc903690600401614ae2565b91906119ec6040805167dc6da069631ad6a4602082015260208152614a70565b6119f4615ab6565b611a12604080516717ef774cea4a5de3602082015260208152614a70565b611a3060408051671fdf0d221d02f9f4602082015260208152614a70565b611a4e6040805167878bffb610b5fc27602082015260208152614a70565b611a6c6040805167c7d025121b69bf9e602082015260208152614a70565b611a8a6040805167af25309067045576602082015260208152614a70565b81611aad5761039260408051674ebabce7fb6e456e602082015260208152614a70565b611acb6040805167282e2b4b2fa69429602082015260208152614a70565b611ae96040805167b06f0eb82d8bee15602082015260208152614a70565b611b076040805167533c346dd888fd61602082015260208152614a70565b611b1082615610565b611b335750610426604080516746aae52442beb766602082015260208152614a70565b611b5160408051677cd8a1984da83a8f602082015260208152614a70565b611b6f6040805167d59190d6e1e376b6602082015260208152614a70565b611b8d6040805167baa6b8d03ef7ed92602082015260208152614a70565b611bab60408051678281df3f36033cea602082015260208152614a70565b611bb36156d9565b611bd1604080516790a42e0d3c002506602082015260208152614a70565b611bef60408051670c3606f72ed58b6d602082015260208152614a70565b611c0d60408051675def4c3069b80d12602082015260208152614a70565b611c2b604080516795a7c47f1bc0c31e602082015260208152614a70565b821580611f3e575b8015611f0a575b15611c8a57611c5d604080516756c6448760dff6f9602082015260208152614a70565b611c7b60408051670add14abd5cd84a0602082015260208152614a70565b6302ba6fd960e61b5f5260045ffd5b611ca860408051674cd523001f570e2e602082015260208152614a70565b611cc66040805167d6edc3b60ea525a3602082015260208152614a70565b815f525f602052600960405f2001600160ff19825416179055611cfd6040805167db90a1a5ed32889a602082015260208152614a70565b815f525f602052600a60405f2001926001600160401b038111610e1857611d2881610b418654614b0f565b5f93601f8211600114611e8457907fbec3996a34a832e2220c858d926c98f7db55b65a8ae9864e1597d7e757e51b899291611d7a828087985f91611e79575b508160011b915f199060031b1c19161790565b90555b611d9b6040805167a32d3ac455208f9a602082015260208152614a70565b835f525f602052600460405f2001600360ff19825416179055611dd26040805167b71e152f08984c2f602082015260208152614a70565b611df060408051676c83847a1c4d382f602082015260208152614a70565b611e0760405192839260408452604084019161503b565b4260208301520390a2611e2e6040805167bee687401d1ad1a0602082015260208152614a70565b611e4c6040805167e1f775b8c375787c602082015260208152614a70565b7f62a4b659d5b66819c5b5a00e18102c6889b2292a982d5f80bfe6b975ae5f2fa9602060405160038152a2005b905085013589611d67565b601f198216815f5260205f20905f5b818110611ef25750908596847fbec3996a34a832e2220c858d926c98f7db55b65a8ae9864e1597d7e757e51b899695949310611ed9575b5050600182811b019055611d7d565b8401355f19600385901b60f8161c191690558680611eca565b85880135835560209788019760019093019201611e93565b5060c883118015611c3a5750611f3760408051670af7d8dcd8a1b93160c21b602082015260208152614a70565b6001611c3a565b50611f60604080516725551f11681fba4f60c01b602082015260208152614a70565b6001611c33565b3461023957606036600319011261023957600435611f996040805167b630778510f1c7cc602082015260208152614a70565b611fa1615ab6565b611fbf604080516798948c35884fd495602082015260208152614a70565b611fdd6040805167be545767ea1ebf8c602082015260208152614a70565b611ffb6040805167878bffb610b5fc27602082015260208152614a70565b6120196040805167c7d025121b69bf9e602082015260208152614a70565b6120376040805167af25309067045576602082015260208152614a70565b8061205a5761039260408051674ebabce7fb6e456e602082015260208152614a70565b6120786040805167282e2b4b2fa69429602082015260208152614a70565b6120966040805167b06f0eb82d8bee15602082015260208152614a70565b6120b46040805167533c346dd888fd61602082015260208152614a70565b6120bd81615610565b6120df57610426604080516746aae52442beb766602082015260208152614a70565b6120fd60408051677cd8a1984da83a8f602082015260208152614a70565b61211b6040805167d59190d6e1e376b6602082015260208152614a70565b6121396040805167257461a4d5237d33602082015260208152614a70565b61215760408051670cfdb8ba86386c0b602082015260208152614a70565b335f9081527f021e7b47d957252238e482ce63807c8c87d29d066c819e84063657a50c13de00602052604090205460ff16156122b7576121ab6040805167235b8db63298dbc9602082015260208152614a70565b6121c9604080516701b59a1da6ed3297602082015260208152614a70565b6121e760408051677ba9c452c8991cec602082015260208152614a70565b612205604080516788ba70fba07b45b3602082015260208152614a70565b5f525f602052600860405f2061222f604080516790c723bbad165e01602082015260208152614a70565b600681016122406024358254614bfe565b90556122606040805167c6dbd5dec2d0aecb602082015260208152614a70565b600781016122716044358254614bfe565b90556122916040805167f4b9ecd4ba38c591602082015260208152614a70565b01805490600182018092116122a35755005b634e487b7160e01b5f52601160045260245ffd5b63e2517d3f60e01b5f52336004527f5719df9ef2c4678b547f89e4f5ae410dbf400fc51cf3ded434c55f6adea2c43f60245260445ffd5b34610239575f3660031901126102395761106060405161230f604082614a70565b60058152640352e302e360dc1b6020820152604051918291602083526020830190614982565b346102395761234336614907565b905f905f926123ad5f9161236b6040805167a14627dfdd50da9d602082015260208152614a70565b6123896040805167cbcc8dce419116d5602082015260208152614a70565b6123a7604080516738f7b1e6a6939d73602082015260208152614a70565b83614bfe565b6123cb6040805167ef3572564d555d87602082015260208152614a70565b6123e96040805167cf52b8662b670326602082015260208152614a70565b6005549061240b60408051671b6dd138ed460f8a602082015260208152614a70565b61242960408051670e77acd675b1e8a0602082015260208152614a70565b81811115612755575061245060408051677a550d7fa3f27569602082015260208152614a70565b61246e60408051671f7900a7c00c0c75602082015260208152614a70565b61248c6040805167a1eeb81c3a5b757c602082015260208152614a70565b828111801561272d575b80612704575b156126fd576124ab8382614c0b565b925b6124cb604080516793c150b4809c5e5e602082015260208152614a70565b6124e9604080516787b49ec242a044ae602082015260208152614a70565b905b80821061255857505090611060916125176040805167a585ce656ce05c6b602082015260208152614a70565b61253560408051679ff2ac698f430548602082015260208152614a70565b604051948594859094939260609260808301968352602083015260408201520152565b909160019061257b6040805167f37d5b1fe467b06a602082015260208152614a70565b612599604080516724966fdb0ef751e9602082015260208152614a70565b6125a284614c18565b90549060031b1c5f525f60205260405f20968796876040516125c381614a54565b81548152858060a01b03868301541660208201526125e360028301614b47565b60408201526003820154606082015261260660ff60048401541660808301614fe0565b600582015460a0820152610140612654600a6008600760068701549660c0870197885201549d60e086019e8f5201549d61010085019e8f5260ff600982015416151561012086015201614b47565b91015261267560408051671346cab228763ccf602082015260208152614a70565b6126936040805167cddb9d220c4b7211602082015260208152614a70565b5101966126b460408051672f64ec178f56588a602082015260208152614a70565b5101966126d5604080516792738ec1316c5c25602082015260208152614a70565b5101926126f6604080516780070d2492409715602082015260208152614a70565b01906124eb565b5f926124ad565b506127266040805167504c6f53288b6b9160c01b602082015260208152614a70565b600161249c565b5061274f60408051674325028e3a19b32b60c11b602082015260208152614a70565b5f612496565b90506127756040805167e246deedec21df7f602082015260208152614a70565b61246e565b34610239575f3660031901126102395760206040515f8152f35b34610239576040366003190112610239576127ad614956565b6004355f525f516020615ba75f395f51905f5260205260405f209060018060a01b03165f52602052602060ff60405f2054166040519015158152f35b34610239576040366003190112610239576004356024356004811015610239576128276040805167b445acea63a4aad9602082015260208152614a70565b61282f615ab6565b61284d6040805167ad4bdb7bcfd1b647602082015260208152614a70565b61286b6040805167a0c2b977907759d4602082015260208152614a70565b6128896040805167878bffb610b5fc27602082015260208152614a70565b6128a76040805167c7d025121b69bf9e602082015260208152614a70565b6128c56040805167af25309067045576602082015260208152614a70565b816128e85761039260408051674ebabce7fb6e456e602082015260208152614a70565b6129066040805167282e2b4b2fa69429602082015260208152614a70565b6129246040805167b06f0eb82d8bee15602082015260208152614a70565b6129426040805167533c346dd888fd61602082015260208152614a70565b61294b82615610565b61296e5750610426604080516746aae52442beb766602082015260208152614a70565b60207f62a4b659d5b66819c5b5a00e18102c6889b2292a982d5f80bfe6b975ae5f2fa9916129ae60408051677cd8a1984da83a8f85820152848152614a70565b6129ca6040805167d59190d6e1e376b685820152848152614a70565b6129e66040805167821ecaa3c7451db185820152848152614a70565b612a026040805167abd4c9fc1a0ad40a85820152848152614a70565b612a0a6156d9565b612a266040805167a7529a83a8dea6c085820152848152614a70565b612a426040805167851449d35784fe9a85820152848152614a70565b612a5e60408051677c3cc44e14476db285820152848152614a70565b835f525f8252612a7481600460405f200161505b565b612a906040805167ff615f6b281663e485820152848152614a70565b612aac604080516752fea0c9a42da0b585820152848152614a70565b612ab960405180926149a6565ba2005b34610239575f36600319011261023957612aea604080516745191720c2b6c377602082015260208152614a70565b612af261567d565b612b10604080516771f8e1a3def56542602082015260208152614a70565b612b2e604080516760afec46fa32c740602082015260208152614a70565b612b4c60408051675614f32ab482b752602082015260208152614a70565b612b6a6040805167516616adcd538c6f602082015260208152614a70565b612b72615ab6565b600160ff195f516020615bc75f395f51905f525416175f516020615bc75f395f51905f52557f62e78cea01bee320cd4e420270b5ea74000d11b0c9f74754ebdbfc544b05a2586020604051338152a1005b34610239575f3660031901126102395760206040515f516020615c075f395f51905f528152f35b34610239575f3660031901126102395760206040517f5719df9ef2c4678b547f89e4f5ae410dbf400fc51cf3ded434c55f6adea2c43f8152f35b34610239575f366003190112610239575f5f905f612c566040805167d2a5b839708391d9602082015260208152614a70565b612c74604080516790cc2cbf70b27ea3602082015260208152614a70565b612c926040805167a80c378069ad9900602082015260208152614a70565b600554612cb36040805167143401217cfe51da602082015260208152614a70565b612cd16040805167aaa543ef344cb8c7602082015260208152614a70565b612cee60408051669cded90df3b53e602082015260208152614a70565b6103e88111612f5257612d15604080516761460ffd23c224b2602082015260208152614a70565b612d3360408051678d23b29facfe645f602082015260208152614a70565b612d51604080516753cb7d5b1e46f1cc602082015260208152614a70565b5f905b808210612dae575050606092612d7e60408051676fab92edb88cc5df602082015260208152614a70565b612d9c6040805167ead1ddeed834e492602082015260208152614a70565b60405192835260208301526040820152f35b9091600190612dd160408051676d3f211c7b5a817d602082015260208152614a70565b612def6040805167746647d31b8421ad602082015260208152614a70565b612df884614c18565b90549060031b1c5f525f60205260405f209560405195612e1787614a54565b87548752838060a01b0384890154166020880152612e3760028901614b47565b604088015260038801546060880152612e5a60ff60048a01541660808901614fe0565b600588015460a0880152600688015460c0880190815260078901549760e08101988952610140612ea9600a60088d01549c61010085019d8e5260ff600982015416151561012086015201614b47565b910152612eca60408051671faf42c096792099602082015260208152614a70565b612ee86040805167532a5900f9f9149a602082015260208152614a70565b510195612f096040805167796ae0b82d7959dc602082015260208152614a70565b510195612f2a604080516725875e90d0a1908e602082015260208152614a70565b510192612f4b6040805167e57cd30a330590e3602082015260208152614a70565b0190612d54565b60405162461bcd60e51b815260206004820152603860248201527f546f6f206d616e79206d65726368616e7473202d20757365206765744167677260448201527f656761746553746174697374696373506167696e6174656400000000000000006064820152608490fd5b34610239575f36600319011261023957602060ff5f516020615bc75f395f51905f5254166040519015158152f35b346102395760203660031901126102395761301a6040805167ea0df467cfe899c9602082015260208152614a70565b6130386040805167f906dfea81d27c1a602082015260208152614a70565b613056604080516725c1ae9db73f4338602082015260208152614a70565b6004355f52600260205260405f206040519081602082549182815201915f5260205f20905f5b81811061309f576110608561309381870382614a70565b6040519182918261491d565b825484526020909301926001928301920161307c565b34610239576060366003190112610239576004356024356001600160401b038111610239576130e8903690600401614ae2565b91906044356001600160401b03811161023957613109903690600401614ae2565b939061312960408051671c5149d81b12e3e3602082015260208152614a70565b335f9081527fb7db2dd08fcb62d0c9e08c51941cae53c267786a0b75803fb7960902fc8ef97d602052604090205460ff161561361a5761317d604080516736f3834e4bf3faf0602082015260208152614a70565b61319b6040805167926773114e2ff2f1602082015260208152614a70565b6131b96040805167096b412089d77d09602082015260208152614a70565b6131d7604080516702e11bce4f4503e0602082015260208152614a70565b6131f56040805167036d22cb9311c8f2602082015260208152614a70565b6007546135e05761321a6040805167b1e46dc8b440c85d602082015260208152614a70565b6132386040805167ad5b47e38f8e84ae602082015260208152614a70565b60405160c081018181106001600160401b03821117610e18576040528481526020810142815260408201338152606083019060018252613279368789614aac565b926080850193845261328c368b88614aac565b60a08087019182529551600655905160075590516008805493516001600160a81b03199094166001600160a01b03929092169190911792151590941b60ff60a01b1691909117909255518051906001600160401b038211610e18576132f2600954614b0f565b601f811161357d575b50602090601f83116001146135185761332a92915f918361350d5750508160011b915f199060031b1c19161790565b6009555b519485516001600160401b038111610e185761334b600a54614b0f565b601f81116134aa575b506020601f821160011461341f578161340f9493926133aa927f5a4b9f27a26618330986254014b0a0081a144ab6878da8d57d4d1e176ce915bf999a5f926134145750508160011b915f199060031b1c19161790565b600a555b6133cc6040805167ca6eb4768bada6f2602082015260208152614a70565b6133ea6040805167758bf35b14152f47602082015260208152614a70565b61340160405195869560408752604087019161503b565b91848303602086015261503b565b0390a2005b015190508a80610b61565b601f19821697600a5f52815f20985f5b818110613492575098600192849261340f9796957f5a4b9f27a26618330986254014b0a0081a144ab6878da8d57d4d1e176ce915bf9b9c1061347a575b505050811b01600a556133ae565b01515f1960f88460031b161c1916905589808061346c565b838301518b556001909a01996020938401930161342f565b600a5f527fc65a7bb8d6351c1cf70c95a316cc6a92839c986682d98bc35f958f4883f9d2a8601f830160051c81019160208410613503575b601f0160051c01905b8181106134f85750613354565b5f81556001016134eb565b90915081906134e2565b015190508980610b61565b90601f1983169160095f52815f20925f5b818110613565575090846001959493921061354d575b505050811b0160095561332e565b01515f1960f88460031b161c1916905588808061353f565b92936020600181928786015181550195019301613529565b60095f527f6e1540171b6c0c960b71a7020d9f60077f6af931a8bbf590da0223dacf75c7af601f840160051c810191602085106135d6575b601f0160051c01905b8181106135cb57506132fb565b5f81556001016135be565b90915081906135b5565b60405162461bcd60e51b8152602060048201526012602482015271105b1c9958591e4818dbdb999a59dd5c995960721b6044820152606490fd5b63e2517d3f60e01b5f52336004525f60245260445ffd5b34610239575f366003190112610239577f00000000000000000000000000000000000000000000000000000000000000006001600160a01b031630036136885760206040515f516020615b875f395f51905f528152f35b63703e46dd60e11b5f5260045ffd5b6040366003190112610239576136ab61496c565b6024356001600160401b0381116102395736602382011215610239576136db903690602481600401359101614aac565b6001600160a01b037f000000000000000000000000000000000000000000000000000000000000000016308114908115613939575b50613688576137336040805167912664515edfebd9602082015260208152614a70565b335f9081527fab71e3f32666744d246edff3f96e4bdafee2e9867098cdd118a979a7464786a8602052604090205460ff1615613902576137876040805167f911c5ec3f76612c602082015260208152614a70565b6137a56040805167f4bb2534ab592702602082015260208152614a70565b6040516352d1902d60e01b81526001600160a01b0383169290602081600481875afa5f91816138ce575b506137e75783634c9c8ce360e01b5f5260045260245ffd5b805f516020615b875f395f51905f528592036138bc5750813b156138aa575f516020615b875f395f51905f5280546001600160a01b031916821790557fbc7cd75a20ee27fd9adebab32041f755214dbc6bffa90cc0225b39da2e5c2d3b5f80a2815115613892575f808360206104e395519101845af43d1561388a573d9161386e83614a91565b9261387c6040519485614a70565b83523d5f602085013e615b08565b606091615b08565b50503461389b57005b63b398979f60e01b5f5260045ffd5b634c9c8ce360e01b5f5260045260245ffd5b632a87526960e21b5f5260045260245ffd5b9091506020813d6020116138fa575b816138ea60209383614a70565b81010312610239575190856137cf565b3d91506138dd565b63e2517d3f60e01b5f52336004527f189ab7a9244df0848122154315af71fe140f3db0fe014031783b0946b8c9d2e360245260445ffd5b5f516020615b875f395f51905f52546001600160a01b03161415905083613710565b346102395761396936614907565b5f915f5f9061398c6040805167e82994fcf717b289602082015260208152614a70565b6139aa604080516783555c6151619bb0602082015260208152614a70565b6139f3600554946139cf60408051671c2434f40a3f50e2602082015260208152614a70565b6139ed60408051679a86adf9c843b431602082015260208152614a70565b84614bfe565b613a1160408051674514096ff64a0494602082015260208152614a70565b613a2f6040805167d120ea948a575c79602082015260208152614a70565b84811115613ec25750613a5660408051674d7b46bf269107c7602082015260208152614a70565b613a7460408051670911fa9042fd99be602082015260208152614a70565b835b613a946040805167f9e6f056aaf5da00602082015260208152614a70565b8381118015613e9a575b80613e71575b15613e6a57613ab38482614c0b565b935b613ad36040805167ab081eaefb0b8e60602082015260208152614a70565b613af160408051674ec77e886ddf4253602082015260208152614a70565b905b808210613b5757505060a094613b1d60408051677f3de36342e91461602082015260208152614a70565b613b3b60408051679d9f1f4cbd0a6f45602082015260208152614a70565b6040519485526020850152604084015260608301526080820152f35b9092613b766040805166757c5caa499055602082015260208152614a70565b613b94604080516795cc393a9a4abebb602082015260208152614a70565b613b9d84614c18565b90549060031b1c5f525f60205260405f209687604051613bbc81614a54565b8154815260018201546001600160a01b03166020820152613bdf60028301614b47565b604082015260038201546060820152610140613c4d600a60ff60098160048801541696613c10608088019889614fe0565b600581015460a0880152600681015460c0880152600781015460e08801526008810154610100880152015416151561012085019081529c01614b47565b910152613c6e6040805167fdb9d08bc6e730c6602082015260208152614a70565b613c8c6040805167885fd3b044d3d04f602082015260208152614a70565b80516004811015610e9a57613daf5750600190613cbd6040805167a83fa5b76458afb0602082015260208152614a70565b613cdb6040805167a4b9149e7a31eadd602082015260208152614a70565b01965b613cfc60408051678e271b5ae2769554602082015260208152614a70565b613d1a6040805167aa64d77a51630977602082015260208152614a70565b5115613d885760018091613d426040805167b9292228e0ae55d9602082015260208152614a70565b613d6060408051679e7c009da0a20980602082015260208152614a70565b01935b613d816040805167f98bbfa9b733b760602082015260208152614a70565b0190613af3565b92600190613daa60408051677a13477bc14043aa602082015260208152614a70565b613d63565b613dd16040809a96939a5167528efc4fcac2e0b3602082015260208152614a70565b613def6040805167336c99434d715e66602082015260208152614a70565b516004811015610e9a57600103613e4657600190613e216040805167195abbc3aaf65a0b602082015260208152614a70565b613e3f60408051670f93339a8700ec3e602082015260208152614a70565b0192613cde565b92613e65604080516729fff1d999a65375602082015260208152614a70565b613cde565b5f93613ab5565b50613e93604080516746e20b0f62df9f3160c11b602082015260208152614a70565b6001613aa4565b50613ebc60408051677fe3abd5c05185cf60c01b602082015260208152614a70565b5f613a9e565b613ee0604080516710639e20bae6ded7602082015260208152614a70565b613a76565b34610239575f36600319011261023957613f1360408051670904c39e6c497182602082015260208152614a70565b613f3160408051673ac87e81192ee8d3602082015260208152614a70565b613f4f604080516764ce5d284464b71d602082015260208152614a70565b6020600554604051908152f35b34610239575f36600319011261023957613f8a604080516732863b1732357992602082015260208152614a70565b613f9261567d565b613fb06040805167d54ed8f345e2372b602082015260208152614a70565b613fce604080516745bec70b79c2dc66602082015260208152614a70565b613fec604080516770e8034d0223ad1f602082015260208152614a70565b61400a60408051675c58aa442fb81351602082015260208152614a70565b5f516020615bc75f395f51905f525460ff8116156140615760ff19165f516020615bc75f395f51905f52557f5db9ee0a495bf2e6ff9c91a7834c1ba4fdd244a5e8aa4e537bd38aeae4b073aa6020604051338152a1005b638dfc202b60e01b5f5260045ffd5b34610239575f366003190112610239575f5f5f6140a16040805167fadf30a66af569db602082015260208152614a70565b6140bf60408051672e15e9928869e9cb602082015260208152614a70565b600554916140e16040805167f27c772ca4ac341d602082015260208152614a70565b6140ff6040805167c1f76b999f110dd1602082015260208152614a70565b61411d60408051676e37e76895c91735602082015260208152614a70565b6103e8831161451d5790614145604080516713b42bae9d82dc9c602082015260208152614a70565b6141636040805167d630527ebc79e6b7602082015260208152614a70565b6141816040805167f5c7874b05a31044602082015260208152614a70565b61419f6040805167cafc9f97f76ef40a602082015260208152614a70565b6141bd6040805167817b616f390823ee602082015260208152614a70565b5f915b8383106142085761106092506141ea6040805167d9691c165acea439602082015260208152614a70565b6125356040805167e1f76760ed466ff4602082015260208152614a70565b906142276040805167948c7ed7450476a5602082015260208152614a70565b6142456040805167b1638dae5ba3ef66602082015260208152614a70565b61424e83614c18565b90549060031b1c5f525f60205260405f209460405161426c81614a54565b8654815260018701546001600160a01b0316602082015261428f60028801614b47565b60408201526003870154606082015260ff600488015416906142b5608082019283614fe0565b600588015460a0820152600688015460c0820152600788015460e082015260088801546101008201526101406142ff600a60ff60098c0154169a61012085019b15158c5201614b47565b9101526143206040805167db309f2bae664899602082015260208152614a70565b61433e6040805167cf65701c346903c2602082015260208152614a70565b80516004811015610e9a57614462575060019061436f6040805167665e9dfd78bdce36602082015260208152614a70565b61438d6040805167289388922aff760a602082015260208152614a70565b01945b6143ae6040805167df58962f18683032602082015260208152614a70565b6143cc60408051670aa82d8d01c409f8602082015260208152614a70565b511561443b57600180916143f46040805167a9d9c912ff367d93602082015260208152614a70565b6144126040805167273c5f7a81f4d3df602082015260208152614a70565b01925b614433604080516743bb4240dc01166c602082015260208152614a70565b0191906141c0565b9160019061445d6040805167978bdaf2b1778f98602082015260208152614a70565b614415565b614484604080989593985167a0920d4c6e247b18602082015260208152614a70565b6144a260408051675de1ca405b29bca4602082015260208152614a70565b516004811015610e9a576001036144f9576001906144d4604080516757da1f4cd977938e602082015260208152614a70565b6144f260408051676e6a139ee9220ac2602082015260208152614a70565b0191614390565b91614518604080516701cc66e5693f51c2602082015260208152614a70565b614390565b60405162461bcd60e51b815260206004820152603560248201527f546f6f206d616e79206d65726368616e7473202d207573652067657444617368604482015274189bd85c9914dd5b5b585c9e541859da5b985d1959605a1b6064820152608490fd5b3461023957604036600319011261023957614599614956565b336001600160a01b038216036145b5576104e390600435615a1a565b63334bd91960e11b5f5260045ffd5b34610239576020366003190112610239576004356145e0614f8f565b506145ff6040805167b93aca4d827b460b602082015260208152614a70565b61461d6040805167878bffb610b5fc27602082015260208152614a70565b61463b6040805167c7d025121b69bf9e602082015260208152614a70565b6146596040805167af25309067045576602082015260208152614a70565b8061467c5761039260408051674ebabce7fb6e456e602082015260208152614a70565b61469a6040805167282e2b4b2fa69429602082015260208152614a70565b6146b86040805167b06f0eb82d8bee15602082015260208152614a70565b6146d66040805167533c346dd888fd61602082015260208152614a70565b6146df81615610565b61470157610426604080516746aae52442beb766602082015260208152614a70565b61471f60408051677cd8a1984da83a8f602082015260208152614a70565b61473d6040805167d59190d6e1e376b6602082015260208152614a70565b61475b6040805167f841b99c7c1cc03d602082015260208152614a70565b6147796040805167b5069a94e8d21984602082015260208152614a70565b6147976040805167b38dd48fd2e0a99d602082015260208152614a70565b6147b5604080516721521a9034535446602082015260208152614a70565b5f525f60205261106060405f206147f7600a604051926147d484614a54565b8054845260018101546001600160a01b0316602085015261133560028201614b47565b6101408201526040519182916020835260208301906149b3565b34610239576040366003190112610239576104e3600435614830614956565b906148566111a3825f525f516020615ba75f395f51905f52602052600160405f20015490565b615989565b346102395761106061309361486f36614907565b90614c6d565b346102395760203660031901126102395760206148ac6004355f525f516020615ba75f395f51905f52602052600160405f20015490565b604051908152f35b34610239576020366003190112610239576004359063ffffffff60e01b821680920361023957602091637965db0b60e01b81149081156148f6575b5015158152f35b6301ffc9a760e01b149050836148ef565b6040906003190112610239576004359060243590565b60206040818301928281528451809452019201905f5b8181106149405750505090565b8251845260209384019390920191600101614933565b602435906001600160a01b038216820361023957565b600435906001600160a01b038216820361023957565b805180835260209291819084018484015e5f828201840152601f01601f1916010190565b906004821015610e9a5752565b614a51918151815260018060a01b0360208301511660208201526101406149eb60408401516101606040850152610160840190614982565b9260608101516060840152614a08608082015160808501906149a6565b60a081015160a084015260c081015160c084015260e081015160e08401526101008101516101008401526101208101511515610120840152015190610140818403910152614982565b90565b61016081019081106001600160401b03821117610e1857604052565b90601f801991011681019081106001600160401b03821117610e1857604052565b6001600160401b038111610e1857601f01601f191660200190565b929192614ab882614a91565b91614ac66040519384614a70565b829481845281830111610239578281602093845f960137010152565b9181601f84011215610239578235916001600160401b038311610239576020838186019501011161023957565b90600182811c92168015614b3d575b6020831014614b2957565b634e487b7160e01b5f52602260045260245ffd5b91607f1691614b1e565b9060405191825f825492614b5a84614b0f565b8084529360018116908115614bc55750600114614b81575b50614b7f92500383614a70565b565b90505f9291925260205f20905f915b818310614ba9575050906020614b7f928201015f614b72565b6020919350806001915483858901015201910190918492614b90565b905060209250614b7f94915060ff191682840152151560051b8201015f614b72565b6001600160401b038111610e185760051b60200190565b919082018092116122a357565b919082039182116122a357565b600554811015614c305760055f5260205f2001905f90565b634e487b7160e01b5f52603260045260245ffd5b8054821015614c30575f5260205f2001905f90565b8051821015614c305760209160051b010190565b90614c8c60408051674bfa409635ab3fc8602082015260208152614a70565b614caa6040805167247ff38e29805168602082015260208152614a70565b614cc86040805167efbfaa8b8551a8c1602082015260208152614a70565b60055490818310614d4857505050614cf4604080516796de5f5497ae5714602082015260208152614a70565b614d126040805167d4e89c4b7f4978c3602082015260208152614a70565b614d306040805167ee7dbffebe7ea677602082015260208152614a70565b604051614d3e602082614a70565b5f81525f36813790565b614da690614d6a6040805167269227ab0e575105602082015260208152614a70565b614d886040805167335522aecd109ee2602082015260208152614a70565b6123a7604080516727251487e8f3c931602082015260208152614a70565b614dc46040805167ec94e3d35a95905c602082015260208152614a70565b614de2604080516744f19a9df86861fe602082015260208152614a70565b81811115614f6a5750614e096040805167608b8a17512948a1602082015260208152614a70565b614e27604080516782f444b998149f07602082015260208152614a70565b614e45604080516765e4bebb4b0159b9602082015260208152614a70565b614e63604080516754c416dcae6f9d75602082015260208152614a70565b614e6d8282614c0b565b91614e7783614be7565b92614e856040519485614a70565b808452614e94601f1991614be7565b01366020850137614eb96040805167f0a549a8bf55a9d4602082015260208152614a70565b614ed760408051671d47de01033c0d4c602082015260208152614a70565b805b828110614f1f57505050614f016040805167de80b14aa930b8c6602082015260208152614a70565b614a516040805167e3189e808b645c50602082015260208152614a70565b600190614f40604080516753ca161f34d055c4602082015260208152614a70565b614f4981614c18565b90549060031b1c614f63614f5d8584614c0b565b87614c59565b5201614ed9565b9050614f8a6040805167f2605585ef933978602082015260208152614a70565b614e27565b60405190614f9c82614a54565b6060610140835f81525f60208201528260408201525f838201525f60808201525f60a08201525f60c08201525f60e08201525f6101008201525f6101208201520152565b6004821015610e9a5752565b601f8211614ff957505050565b5f5260205f20906020601f840160051c83019310615031575b601f0160051c01905b818110615026575050565b5f815560010161501b565b9091508190615012565b908060209392818452848401375f828201840152601f01601f1916010190565b906004811015610e9a5760ff80198354169116179055565b805490600160401b821015610e185781610ccd91600161509594018155614c44565b9055565b6150b76040805167b540abf40cb75c67602082015260208152614a70565b6150d560408051676b7e1cac1a3c992e602082015260208152614a70565b6150f3604080516765ede8d2dbee0be5602082015260208152614a70565b81615116576108136040805167d51b22006cfa4644602082015260208152614a70565b61513460408051679731e68fb6278ae4602082015260208152614a70565b6151526040805167e287e89a76c0e2e2602082015260208152614a70565b615170604080516702a1ad05c3c91db5602082015260208152614a70565b805f525f602052600360405f2001549061519e604080516761e3c944c5832841602082015260208152614a70565b6151bc6040805167d45f36d91ed96482602082015260208152614a70565b818303615202575050506151e46040805167b694a05c34971307602082015260208152614a70565b614b7f6040805167aa78e14638d30769602082015260208152614a70565b6152206040805167774d965248c65bc5602082015260208152614a70565b61523e6040805167d8349a6e0872f311602082015260208152614a70565b61525c60408051673e19db513ebb5b15602082015260208152614a70565b61527a604080516797f1c9dddfae2029602082015260208152614a70565b61529860408051672fecc622c0c3cb97602082015260208152614a70565b6152b660408051670dd5d17ef437371d602082015260208152614a70565b805f52600460205260405f20546152e1604080516709d0e42667359c4e602082015260208152614a70565b6152ff60408051678e0666b9e73ee7bd602082015260208152614a70565b825f52600260205260405f209061532a60408051677acc2d36e4cb2050602082015260208152614a70565b61534860408051670a0d920addc9cd10602082015260208152614a70565b815480151580615607575b156155e157615376604080516796573c8c8aa8af00602082015260208152614a70565b615394604080516730b40d698aae961b602082015260208152614a70565b6153b260408051671b0602970aa98f5f602082015260208152614a70565b5f1981019081116122a3576153c79083614c44565b90549060031b1c6153ec60408051677c00dc48fa68f582602082015260208152614a70565b806153fa610ccd8486614c44565b905561541a604080516712bdf2333f1e7de3602082015260208152614a70565b5f52600460205260405f20556154446040805167df229d6d6b428a65602082015260208152614a70565b615462604080516773afe1895c61310b602082015260208152614a70565b805480156155cd575f1901906154788282614c44565b8154905f199060031b1b19169055556154a56040805167a374ef7b857cd7f6602082015260208152614a70565b805f5260046020525f60408120555b6154d26040805167147337d8bcdcaf19602082015260208152614a70565b825f52600260205260405f2054815f52600460205260405f205561550a604080516753dbf22e20bae013602082015260208152614a70565b6155286040805167b1f2f3c3f5adb1fa602082015260208152614a70565b825f52600260205261553d8160405f20615073565b61555b6040805167d054d3d0e9ee2e7a602082015260208152614a70565b805f525f60205282600360405f200155615589604080516785786f659a36e4e7602082015260208152614a70565b6155a760408051670351807e5f619f2c602082015260208152614a70565b7ff5fd891888b1fa994de57c7470c54ba04affd70cfa9f68fdd1314e7302a7f13a5f80a4565b634e487b7160e01b5f52603160045260245ffd5b505050615602604080516718fcbbfeab23850a602082015260208152614a70565b6154b4565b50808210615353565b61562e60408051673fd6b1848255915f602082015260208152614a70565b61564c60408051679e6d1c6ae7f60d49602082015260208152614a70565b61566a604080516711b731e9eed6a0ca602082015260208152614a70565b5f525f602052600560405f200154151590565b335f9081527fb16e88c42fd4e48df2dd6a2eabd6bc9aec654ec170056b470819f8892cc6431c602052604090205460ff16156156b557565b63e2517d3f60e01b5f52336004525f516020615c075f395f51905f5260245260445ffd5b335f9081527f06484cc59dc38e4f67c31122333a17ca81b3ca18cdf02bfc298072fa52b0316a602052604090205460ff161561571157565b63e2517d3f60e01b5f52336004527f241ecf16d79d0f8dbfb92cbc07fe17840425976cf0667f022fe9877caa831b0860245260445ffd5b5f8181525f516020615ba75f395f51905f526020908152604080832033845290915290205460ff16156157785750565b63e2517d3f60e01b5f523360045260245260445ffd5b6001600160a01b0381165f9081527fb7db2dd08fcb62d0c9e08c51941cae53c267786a0b75803fb7960902fc8ef97d602052604090205460ff16615825576001600160a01b03165f8181527fb7db2dd08fcb62d0c9e08c51941cae53c267786a0b75803fb7960902fc8ef97d60205260408120805460ff191660011790553391905f516020615b675f395f51905f528180a4600190565b505f90565b6001600160a01b0381165f9081527fb16e88c42fd4e48df2dd6a2eabd6bc9aec654ec170056b470819f8892cc6431c602052604090205460ff16615825576001600160a01b03165f8181527fb16e88c42fd4e48df2dd6a2eabd6bc9aec654ec170056b470819f8892cc6431c60205260408120805460ff191660011790553391905f516020615c075f395f51905f52905f516020615b675f395f51905f529080a4600190565b6001600160a01b0381165f9081527fab71e3f32666744d246edff3f96e4bdafee2e9867098cdd118a979a7464786a8602052604090205460ff16615825576001600160a01b03165f8181527fab71e3f32666744d246edff3f96e4bdafee2e9867098cdd118a979a7464786a860205260408120805460ff191660011790553391907f189ab7a9244df0848122154315af71fe140f3db0fe014031783b0946b8c9d2e3905f516020615b675f395f51905f529080a4600190565b5f8181525f516020615ba75f395f51905f52602090815260408083206001600160a01b038616845290915290205460ff16615a14575f8181525f516020615ba75f395f51905f52602090815260408083206001600160a01b0395909516808452949091528120805460ff19166001179055339291905f516020615b675f395f51905f529080a4600190565b50505f90565b5f8181525f516020615ba75f395f51905f52602090815260408083206001600160a01b038616845290915290205460ff1615615a14575f8181525f516020615ba75f395f51905f52602090815260408083206001600160a01b0395909516808452949091528120805460ff19169055339291907ff6391f5c32d9c69d2a47ea670b442974b53935d1edc7fd64eb21e047a839171b9080a4600190565b60ff5f516020615bc75f395f51905f525416615ace57565b63d93c066560e01b5f5260045ffd5b60ff5f516020615c275f395f51905f525460401c1615615af957565b631afcd79f60e31b5f5260045ffd5b90615b2c5750805115615b1d57602081519101fd5b63d6bda27560e01b5f5260045ffd5b81511580615b5d575b615b3d575090565b639996b31560e01b5f9081526001600160a01b0391909116600452602490fd5b50803b15615b3556fe2f8788117e7eff1d82e926ec794901d17c78024a50270940304540a733656f0d360894a13ba1a3210667c828492db98dca3e2076cc3735a920a3ca505d382bbc02dd7bc7dec4dceedda775e58dd541e08a116c6c53815c0bd028192f7b626800cd5ed15c6e187e77e9aee88184c21f4f2182ab5827cb3b7e07fbedcd63f033009b779b17422d0df92223018b32b4d1fa46e071723d6817e2486d003becc55f00a49807205ce4d355092ef5a8a18f56e8913cf4a201fbe287825b095693c21775f0c57e16840df040f15088dc2f81fe391c3923bec73e23a9662efc9c229c6a00a2646970667358221220936ad768349f09801520d4bea33d36cdfe1d11d6eec00d0c8e3d20732ec5a67c64736f6c634300081c0033f0c57e16840df040f15088dc2f81fe391c3923bec73e23a9662efc9c229c6a00",
  "linkReferences": {},
  "deployedLinkReferences": {}
}