{
  "_format": "hh-sol-artifact-1",
  "contractName": "RepPerformance",
  "sourceName": "contracts/RepPerformance.sol",
  "abi": [
    {
      "inputs": [],
      "stateMutability": "nonpayable",
      "type": "constructor"
    },
    {
      "inputs": [],
      "name": "AccessControlBadConfirmation",
      "type": "error"
    },
    {
      "inputs": [
        {
          "internalType": "address",
          "name": "account",
          "type": "address"
        },
        {
          "internalType": "bytes32",
          "name": "neededRole",
          "type": "bytes32"
        }
      ],
      "name": "AccessControlUnauthorizedAccount",
      "type": "error"
    },
    {
      "inputs": [
        {
          "internalType": "address",
          "name": "target",
          "type": "address"
        }
      ],
      "name": "AddressEmptyCode",
      "type": "error"
    },
    {
      "inputs": [
        {
          "internalType": "address",
          "name": "implementation",
          "type": "address"
        }
      ],
      "name": "ERC1967InvalidImplementation",
      "type": "error"
    },
    {
      "inputs": [],
      "name": "ERC1967NonPayable",
      "type": "error"
    },
    {
      "inputs": [],
      "name": "EnforcedPause",
      "type": "error"
    },
    {
      "inputs": [],
      "name": "ExpectedPause",
      "type": "error"
    },
    {
      "inputs": [],
      "name": "FailedCall",
      "type": "error"
    },
    {
      "inputs": [],
      "name": "InvalidCommissionRate",
      "type": "error"
    },
    {
      "inputs": [],
      "name": "InvalidInitialization",
      "type": "error"
    },
    {
      "inputs": [],
      "name": "InvalidLeaderboardSize",
      "type": "error"
    },
    {
      "inputs": [],
      "name": "InvalidRepAddress",
      "type": "error"
    },
    {
      "inputs": [],
      "name": "NotInitializing",
      "type": "error"
    },
    {
      "inputs": [],
      "name": "ReentrancyGuardReentrantCall",
      "type": "error"
    },
    {
      "inputs": [],
      "name": "RepAlreadyExists",
      "type": "error"
    },
    {
      "inputs": [],
      "name": "RepDoesNotExist",
      "type": "error"
    },
    {
      "inputs": [],
      "name": "TransactionVaultNotSet",
      "type": "error"
    },
    {
      "inputs": [],
      "name": "UUPSUnauthorizedCallContext",
      "type": "error"
    },
    {
      "inputs": [
        {
          "internalType": "bytes32",
          "name": "slot",
          "type": "bytes32"
        }
      ],
      "name": "UUPSUnsupportedProxiableUUID",
      "type": "error"
    },
    {
      "inputs": [],
      "name": "UnauthorizedAccess",
      "type": "error"
    },
    {
      "anonymous": false,
      "inputs": [
        {
          "indexed": true,
          "internalType": "bytes32",
          "name": "repId",
          "type": "bytes32"
        },
        {
          "indexed": false,
          "internalType": "uint256",
          "name": "newRate",
          "type": "uint256"
        }
      ],
      "name": "CommissionRateUpdated",
      "type": "event"
    },
    {
      "anonymous": false,
      "inputs": [
        {
          "indexed": true,
          "internalType": "bytes32",
          "name": "companyId",
          "type": "bytes32"
        },
        {
          "indexed": false,
          "internalType": "string",
          "name": "companyName",
          "type": "string"
        },
        {
          "indexed": false,
          "internalType": "string",
          "name": "templateVersion",
          "type": "string"
        }
      ],
      "name": "CompanyConfigured",
      "type": "event"
    },
    {
      "anonymous": false,
      "inputs": [
        {
          "indexed": false,
          "internalType": "uint64",
          "name": "version",
          "type": "uint64"
        }
      ],
      "name": "Initialized",
      "type": "event"
    },
    {
      "anonymous": false,
      "inputs": [
        {
          "indexed": false,
          "internalType": "uint256",
          "name": "timestamp",
          "type": "uint256"
        },
        {
          "indexed": false,
          "internalType": "enum IRepPerformance.LeaderboardType",
          "name": "leaderboardType",
          "type": "uint8"
        }
      ],
      "name": "LeaderboardUpdated",
      "type": "event"
    },
    {
      "anonymous": false,
      "inputs": [
        {
          "indexed": true,
          "internalType": "bytes32",
          "name": "repId",
          "type": "bytes32"
        },
        {
          "indexed": true,
          "internalType": "bytes32",
          "name": "merchantId",
          "type": "bytes32"
        }
      ],
      "name": "MerchantAssigned",
      "type": "event"
    },
    {
      "anonymous": false,
      "inputs": [
        {
          "indexed": false,
          "internalType": "address",
          "name": "account",
          "type": "address"
        }
      ],
      "name": "Paused",
      "type": "event"
    },
    {
      "anonymous": false,
      "inputs": [
        {
          "indexed": true,
          "internalType": "bytes32",
          "name": "repId",
          "type": "bytes32"
        },
        {
          "indexed": false,
          "internalType": "uint256",
          "name": "volume",
          "type": "uint256"
        },
        {
          "indexed": false,
          "internalType": "uint256",
          "name": "residuals",
          "type": "uint256"
        },
        {
          "indexed": false,
          "internalType": "uint256",
          "name": "transactions",
          "type": "uint256"
        }
      ],
      "name": "RepPerformanceUpdated",
      "type": "event"
    },
    {
      "anonymous": false,
      "inputs": [
        {
          "indexed": true,
          "internalType": "bytes32",
          "name": "repId",
          "type": "bytes32"
        },
        {
          "indexed": true,
          "internalType": "address",
          "name": "walletAddress",
          "type": "address"
        },
        {
          "indexed": false,
          "internalType": "string",
          "name": "name",
          "type": "string"
        }
      ],
      "name": "RepRegistered",
      "type": "event"
    },
    {
      "anonymous": false,
      "inputs": [
        {
          "indexed": true,
          "internalType": "bytes32",
          "name": "repId",
          "type": "bytes32"
        },
        {
          "indexed": false,
          "internalType": "enum IRepPerformance.RepStatus",
          "name": "newStatus",
          "type": "uint8"
        }
      ],
      "name": "RepStatusChanged",
      "type": "event"
    },
    {
      "anonymous": false,
      "inputs": [
        {
          "indexed": true,
          "internalType": "bytes32",
          "name": "role",
          "type": "bytes32"
        },
        {
          "indexed": true,
          "internalType": "bytes32",
          "name": "previousAdminRole",
          "type": "bytes32"
        },
        {
          "indexed": true,
          "internalType": "bytes32",
          "name": "newAdminRole",
          "type": "bytes32"
        }
      ],
      "name": "RoleAdminChanged",
      "type": "event"
    },
    {
      "anonymous": false,
      "inputs": [
        {
          "indexed": true,
          "internalType": "bytes32",
          "name": "role",
          "type": "bytes32"
        },
        {
          "indexed": true,
          "internalType": "address",
          "name": "account",
          "type": "address"
        },
        {
          "indexed": true,
          "internalType": "address",
          "name": "sender",
          "type": "address"
        }
      ],
      "name": "RoleGranted",
      "type": "event"
    },
    {
      "anonymous": false,
      "inputs": [
        {
          "indexed": true,
          "internalType": "bytes32",
          "name": "role",
          "type": "bytes32"
        },
        {
          "indexed": true,
          "internalType": "address",
          "name": "account",
          "type": "address"
        },
        {
          "indexed": true,
          "internalType": "address",
          "name": "sender",
          "type": "address"
        }
      ],
      "name": "RoleRevoked",
      "type": "event"
    },
    {
      "anonymous": false,
      "inputs": [
        {
          "indexed": true,
          "internalType": "address",
          "name": "newVault",
          "type": "address"
        }
      ],
      "name": "TransactionVaultUpdated",
      "type": "event"
    },
    {
      "anonymous": false,
      "inputs": [
        {
          "indexed": false,
          "internalType": "address",
          "name": "account",
          "type": "address"
        }
      ],
      "name": "Unpaused",
      "type": "event"
    },
    {
      "anonymous": false,
      "inputs": [
        {
          "indexed": true,
          "internalType": "address",
          "name": "implementation",
          "type": "address"
        }
      ],
      "name": "Upgraded",
      "type": "event"
    },
    {
      "inputs": [],
      "name": "ADMIN_ROLE",
      "outputs": [
        {
          "internalType": "bytes32",
          "name": "",
          "type": "bytes32"
        }
      ],
      "stateMutability": "view",
      "type": "function"
    },
    {
      "inputs": [],
      "name": "DEFAULT_ADMIN_ROLE",
      "outputs": [
        {
          "internalType": "bytes32",
          "name": "",
          "type": "bytes32"
        }
      ],
      "stateMutability": "view",
      "type": "function"
    },
    {
      "inputs": [],
      "name": "MANAGER_ROLE",
      "outputs": [
        {
          "internalType": "bytes32",
          "name": "",
          "type": "bytes32"
        }
      ],
      "stateMutability": "view",
      "type": "function"
    },
    {
      "inputs": [],
      "name": "MAX_COMMISSION_RATE",
      "outputs": [
        {
          "internalType": "uint256",
          "name": "",
          "type": "uint256"
        }
      ],
      "stateMutability": "view",
      "type": "function"
    },
    {
      "inputs": [],
      "name": "MAX_LEADERBOARD_SIZE",
      "outputs": [
        {
          "internalType": "uint256",
          "name": "",
          "type": "uint256"
        }
      ],
      "stateMutability": "view",
      "type": "function"
    },
    {
      "inputs": [],
      "name": "UPGRADE_INTERFACE_VERSION",
      "outputs": [
        {
          "internalType": "string",
          "name": "",
          "type": "string"
        }
      ],
      "stateMutability": "view",
      "type": "function"
    },
    {
      "inputs": [
        {
          "internalType": "bytes32",
          "name": "_repId",
          "type": "bytes32"
        },
        {
          "internalType": "bytes32",
          "name": "_merchantId",
          "type": "bytes32"
        }
      ],
      "name": "assignMerchant",
      "outputs": [],
      "stateMutability": "nonpayable",
      "type": "function"
    },
    {
      "inputs": [
        {
          "internalType": "bytes32[]",
          "name": "repIds",
          "type": "bytes32[]"
        }
      ],
      "name": "batchGetReps",
      "outputs": [
        {
          "components": [
            {
              "internalType": "bytes32",
              "name": "repId",
              "type": "bytes32"
            },
            {
              "internalType": "address",
              "name": "walletAddress",
              "type": "address"
            },
            {
              "internalType": "string",
              "name": "repName",
              "type": "string"
            },
            {
              "internalType": "string",
              "name": "contactEmail",
              "type": "string"
            },
            {
              "internalType": "enum IRepPerformance.RepStatus",
              "name": "status",
              "type": "uint8"
            },
            {
              "internalType": "uint256",
              "name": "joinDate",
              "type": "uint256"
            },
            {
              "internalType": "uint256",
              "name": "totalVolume",
              "type": "uint256"
            },
            {
              "internalType": "uint256",
              "name": "totalResiduals",
              "type": "uint256"
            },
            {
              "internalType": "uint256",
              "name": "totalTransactions",
              "type": "uint256"
            },
            {
              "internalType": "uint256",
              "name": "merchantCount",
              "type": "uint256"
            },
            {
              "internalType": "uint256",
              "name": "commissionRate",
              "type": "uint256"
            }
          ],
          "internalType": "struct IRepPerformance.Representative[]",
          "name": "",
          "type": "tuple[]"
        }
      ],
      "stateMutability": "view",
      "type": "function"
    },
    {
      "inputs": [],
      "name": "companyConfig",
      "outputs": [
        {
          "internalType": "bytes32",
          "name": "companyId",
          "type": "bytes32"
        },
        {
          "internalType": "uint256",
          "name": "deploymentTimestamp",
          "type": "uint256"
        },
        {
          "internalType": "address",
          "name": "deployer",
          "type": "address"
        },
        {
          "internalType": "bool",
          "name": "isActive",
          "type": "bool"
        },
        {
          "internalType": "string",
          "name": "companyName",
          "type": "string"
        },
        {
          "internalType": "string",
          "name": "templateVersion",
          "type": "string"
        }
      ],
      "stateMutability": "view",
      "type": "function"
    },
    {
      "inputs": [],
      "name": "getAllRepIds",
      "outputs": [
        {
          "internalType": "bytes32[]",
          "name": "",
          "type": "bytes32[]"
        }
      ],
      "stateMutability": "view",
      "type": "function"
    },
    {
      "inputs": [],
      "name": "getPerformanceSummary",
      "outputs": [
        {
          "internalType": "uint256",
          "name": "totalReps",
          "type": "uint256"
        },
        {
          "internalType": "uint256",
          "name": "activeReps",
          "type": "uint256"
        },
        {
          "internalType": "uint256",
          "name": "totalVolumeAll",
          "type": "uint256"
        },
        {
          "internalType": "uint256",
          "name": "totalResidualsAll",
          "type": "uint256"
        }
      ],
      "stateMutability": "view",
      "type": "function"
    },
    {
      "inputs": [
        {
          "internalType": "bytes32",
          "name": "_repId",
          "type": "bytes32"
        }
      ],
      "name": "getRep",
      "outputs": [
        {
          "components": [
            {
              "internalType": "bytes32",
              "name": "repId",
              "type": "bytes32"
            },
            {
              "internalType": "address",
              "name": "walletAddress",
              "type": "address"
            },
            {
              "internalType": "string",
              "name": "repName",
              "type": "string"
            },
            {
              "internalType": "string",
              "name": "contactEmail",
              "type": "string"
            },
            {
              "internalType": "enum IRepPerformance.RepStatus",
              "name": "status",
              "type": "uint8"
            },
            {
              "internalType": "uint256",
              "name": "joinDate",
              "type": "uint256"
            },
            {
              "internalType": "uint256",
              "name": "totalVolume",
              "type": "uint256"
            },
            {
              "internalType": "uint256",
              "name": "totalResiduals",
              "type": "uint256"
            },
            {
              "internalType": "uint256",
              "name": "totalTransactions",
              "type": "uint256"
            },
            {
              "internalType": "uint256",
              "name": "merchantCount",
              "type": "uint256"
            },
            {
              "internalType": "uint256",
              "name": "commissionRate",
              "type": "uint256"
            }
          ],
          "internalType": "struct IRepPerformance.Representative",
          "name": "",
          "type": "tuple"
        }
      ],
      "stateMutability": "view",
      "type": "function"
    },
    {
      "inputs": [
        {
          "internalType": "address",
          "name": "_wallet",
          "type": "address"
        }
      ],
      "name": "getRepByWallet",
      "outputs": [
        {
          "components": [
            {
              "internalType": "bytes32",
              "name": "repId",
              "type": "bytes32"
            },
            {
              "internalType": "address",
              "name": "walletAddress",
              "type": "address"
            },
            {
              "internalType": "string",
              "name": "repName",
              "type": "string"
            },
            {
              "internalType": "string",
              "name": "contactEmail",
              "type": "string"
            },
            {
              "internalType": "enum IRepPerformance.RepStatus",
              "name": "status",
              "type": "uint8"
            },
            {
              "internalType": "uint256",
              "name": "joinDate",
              "type": "uint256"
            },
            {
              "internalType": "uint256",
              "name": "totalVolume",
              "type": "uint256"
            },
            {
              "internalType": "uint256",
              "name": "totalResiduals",
              "type": "uint256"
            },
            {
              "internalType": "uint256",
              "name": "totalTransactions",
              "type": "uint256"
            },
            {
              "internalType": "uint256",
              "name": "merchantCount",
              "type": "uint256"
            },
            {
              "internalType": "uint256",
              "name": "commissionRate",
              "type": "uint256"
            }
          ],
          "internalType": "struct IRepPerformance.Representative",
          "name": "",
          "type": "tuple"
        }
      ],
      "stateMutability": "view",
      "type": "function"
    },
    {
      "inputs": [
        {
          "internalType": "bytes32",
          "name": "_repId",
          "type": "bytes32"
        }
      ],
      "name": "getRepMerchants",
      "outputs": [
        {
          "internalType": "bytes32[]",
          "name": "",
          "type": "bytes32[]"
        }
      ],
      "stateMutability": "view",
      "type": "function"
    },
    {
      "inputs": [
        {
          "internalType": "bytes32",
          "name": "role",
          "type": "bytes32"
        }
      ],
      "name": "getRoleAdmin",
      "outputs": [
        {
          "internalType": "bytes32",
          "name": "",
          "type": "bytes32"
        }
      ],
      "stateMutability": "view",
      "type": "function"
    },
    {
      "inputs": [
        {
          "internalType": "uint256",
          "name": "_limit",
          "type": "uint256"
        }
      ],
      "name": "getTopRepsByResiduals",
      "outputs": [
        {
          "components": [
            {
              "internalType": "bytes32",
              "name": "repId",
              "type": "bytes32"
            },
            {
              "internalType": "uint256",
              "name": "value",
              "type": "uint256"
            },
            {
              "internalType": "uint256",
              "name": "rank",
              "type": "uint256"
            }
          ],
          "internalType": "struct IRepPerformance.LeaderboardEntry[]",
          "name": "",
          "type": "tuple[]"
        }
      ],
      "stateMutability": "view",
      "type": "function"
    },
    {
      "inputs": [
        {
          "internalType": "uint256",
          "name": "_limit",
          "type": "uint256"
        }
      ],
      "name": "getTopRepsByTransactions",
      "outputs": [
        {
          "components": [
            {
              "internalType": "bytes32",
              "name": "repId",
              "type": "bytes32"
            },
            {
              "internalType": "uint256",
              "name": "value",
              "type": "uint256"
            },
            {
              "internalType": "uint256",
              "name": "rank",
              "type": "uint256"
            }
          ],
          "internalType": "struct IRepPerformance.LeaderboardEntry[]",
          "name": "",
          "type": "tuple[]"
        }
      ],
      "stateMutability": "view",
      "type": "function"
    },
    {
      "inputs": [
        {
          "internalType": "uint256",
          "name": "_limit",
          "type": "uint256"
        }
      ],
      "name": "getTopRepsByVolume",
      "outputs": [
        {
          "components": [
            {
              "internalType": "bytes32",
              "name": "repId",
              "type": "bytes32"
            },
            {
              "internalType": "uint256",
              "name": "value",
              "type": "uint256"
            },
            {
              "internalType": "uint256",
              "name": "rank",
              "type": "uint256"
            }
          ],
          "internalType": "struct IRepPerformance.LeaderboardEntry[]",
          "name": "",
          "type": "tuple[]"
        }
      ],
      "stateMutability": "view",
      "type": "function"
    },
    {
      "inputs": [],
      "name": "getTotalReps",
      "outputs": [
        {
          "internalType": "uint256",
          "name": "",
          "type": "uint256"
        }
      ],
      "stateMutability": "view",
      "type": "function"
    },
    {
      "inputs": [
        {
          "internalType": "bytes32",
          "name": "role",
          "type": "bytes32"
        },
        {
          "internalType": "address",
          "name": "account",
          "type": "address"
        }
      ],
      "name": "grantRole",
      "outputs": [],
      "stateMutability": "nonpayable",
      "type": "function"
    },
    {
      "inputs": [
        {
          "internalType": "bytes32",
          "name": "role",
          "type": "bytes32"
        },
        {
          "internalType": "address",
          "name": "account",
          "type": "address"
        }
      ],
      "name": "hasRole",
      "outputs": [
        {
          "internalType": "bool",
          "name": "",
          "type": "bool"
        }
      ],
      "stateMutability": "view",
      "type": "function"
    },
    {
      "inputs": [
        {
          "internalType": "address",
          "name": "_admin",
          "type": "address"
        },
        {
          "internalType": "address",
          "name": "_transactionVault",
          "type": "address"
        }
      ],
      "name": "initialize",
      "outputs": [],
      "stateMutability": "nonpayable",
      "type": "function"
    },
    {
      "inputs": [],
      "name": "leaderboardUpdateInterval",
      "outputs": [
        {
          "internalType": "uint256",
          "name": "",
          "type": "uint256"
        }
      ],
      "stateMutability": "view",
      "type": "function"
    },
    {
      "inputs": [],
      "name": "pause",
      "outputs": [],
      "stateMutability": "nonpayable",
      "type": "function"
    },
    {
      "inputs": [],
      "name": "paused",
      "outputs": [
        {
          "internalType": "bool",
          "name": "",
          "type": "bool"
        }
      ],
      "stateMutability": "view",
      "type": "function"
    },
    {
      "inputs": [],
      "name": "proxiableUUID",
      "outputs": [
        {
          "internalType": "bytes32",
          "name": "",
          "type": "bytes32"
        }
      ],
      "stateMutability": "view",
      "type": "function"
    },
    {
      "inputs": [
        {
          "internalType": "bytes32",
          "name": "_repId",
          "type": "bytes32"
        },
        {
          "internalType": "address",
          "name": "_walletAddress",
          "type": "address"
        },
        {
          "internalType": "string",
          "name": "_name",
          "type": "string"
        },
        {
          "internalType": "string",
          "name": "_contactEmail",
          "type": "string"
        },
        {
          "internalType": "uint256",
          "name": "_commissionRate",
          "type": "uint256"
        }
      ],
      "name": "registerRep",
      "outputs": [],
      "stateMutability": "nonpayable",
      "type": "function"
    },
    {
      "inputs": [
        {
          "internalType": "bytes32",
          "name": "role",
          "type": "bytes32"
        },
        {
          "internalType": "address",
          "name": "callerConfirmation",
          "type": "address"
        }
      ],
      "name": "renounceRole",
      "outputs": [],
      "stateMutability": "nonpayable",
      "type": "function"
    },
    {
      "inputs": [
        {
          "internalType": "bytes32",
          "name": "role",
          "type": "bytes32"
        },
        {
          "internalType": "address",
          "name": "account",
          "type": "address"
        }
      ],
      "name": "revokeRole",
      "outputs": [],
      "stateMutability": "nonpayable",
      "type": "function"
    },
    {
      "inputs": [
        {
          "internalType": "bytes32",
          "name": "_companyId",
          "type": "bytes32"
        },
        {
          "internalType": "string",
          "name": "_companyName",
          "type": "string"
        },
        {
          "internalType": "string",
          "name": "_templateVersion",
          "type": "string"
        }
      ],
      "name": "setCompanyConfig",
      "outputs": [],
      "stateMutability": "nonpayable",
      "type": "function"
    },
    {
      "inputs": [
        {
          "internalType": "uint256",
          "name": "_interval",
          "type": "uint256"
        }
      ],
      "name": "setLeaderboardUpdateInterval",
      "outputs": [],
      "stateMutability": "nonpayable",
      "type": "function"
    },
    {
      "inputs": [
        {
          "internalType": "address",
          "name": "_newVault",
          "type": "address"
        }
      ],
      "name": "setTransactionVault",
      "outputs": [],
      "stateMutability": "nonpayable",
      "type": "function"
    },
    {
      "inputs": [
        {
          "internalType": "bytes4",
          "name": "interfaceId",
          "type": "bytes4"
        }
      ],
      "name": "supportsInterface",
      "outputs": [
        {
          "internalType": "bool",
          "name": "",
          "type": "bool"
        }
      ],
      "stateMutability": "view",
      "type": "function"
    },
    {
      "inputs": [],
      "name": "transactionVault",
      "outputs": [
        {
          "internalType": "contract ITransactionVault",
          "name": "",
          "type": "address"
        }
      ],
      "stateMutability": "view",
      "type": "function"
    },
    {
      "inputs": [],
      "name": "unpause",
      "outputs": [],
      "stateMutability": "nonpayable",
      "type": "function"
    },
    {
      "inputs": [
        {
          "internalType": "bytes32",
          "name": "_repId",
          "type": "bytes32"
        },
        {
          "internalType": "uint256",
          "name": "_newRate",
          "type": "uint256"
        }
      ],
      "name": "updateCommissionRate",
      "outputs": [],
      "stateMutability": "nonpayable",
      "type": "function"
    },
    {
      "inputs": [],
      "name": "updateLeaderboards",
      "outputs": [],
      "stateMutability": "nonpayable",
      "type": "function"
    },
    {
      "inputs": [
        {
          "internalType": "bytes32",
          "name": "_repId",
          "type": "bytes32"
        },
        {
          "internalType": "uint256",
          "name": "_volume",
          "type": "uint256"
        },
        {
          "internalType": "uint256",
          "name": "_residual",
          "type": "uint256"
        }
      ],
      "name": "updatePerformance",
      "outputs": [],
      "stateMutability": "nonpayable",
      "type": "function"
    },
    {
      "inputs": [
        {
          "internalType": "bytes32",
          "name": "_repId",
          "type": "bytes32"
        },
        {
          "internalType": "enum IRepPerformance.RepStatus",
          "name": "_status",
          "type": "uint8"
        }
      ],
      "name": "updateRepStatus",
      "outputs": [],
      "stateMutability": "nonpayable",
      "type": "function"
    },
    {
      "inputs": [
        {
          "internalType": "address",
          "name": "newImplementation",
          "type": "address"
        },
        {
          "internalType": "bytes",
          "name": "data",
          "type": "bytes"
        }
      ],
      "name": "upgradeToAndCall",
      "outputs": [],
      "stateMutability": "payable",
      "type": "function"
    }
  ],
  "bytecode": "0x60a0806040523461011e57604061002b913060805267f0ff4cbf4db029b4602082015260208152610122565b6100496040805167684862083959dbc4602082015260208152610122565b6100676040805167d407a59addb53010602082015260208152610122565b5f5160206153d35f395f51905f525460ff8160401c1661010f576002600160401b03196001600160401b038216016100b9575b604051615279908161015a8239608051818181612ff301526130950152f35b6001600160401b0319166001600160401b039081175f5160206153d35f395f51905f52556040519081527fc7f505b2f371ae2175ee4913f4499e1f2633a7b5936321eed1cdaeb6115181d290602090a15f61009a565b63f92ee8a960e01b5f5260045ffd5b5f80fd5b601f909101601f19168101906001600160401b0382119082101761014557604052565b634e487b7160e01b5f52604160045260245ffdfe6080806040526004361015610012575f80fd5b5f3560e01c90816301ffc9a714613d85575080630be0ecd114613bf0578063207239c014613bd4578063248a9ca314613b955780632f2ff15d14613b4b57806336568abe14613b075780633f4ba83a146139f357806340e85a9714613798578063485cc955146132a65780634f1ef2861461304757806352d1902d14612fe157806356ff4f3d14612aab5780635c975abb14612a7d57806360404c77146128195780636ae69350146127a25780636cbe426f146124fb57806375b238fc146124c15780638456cb59146123ba5780638b52c35a146121135780638b8b838414611e3d5780638d7db21a14611b7957806391d1485414611b24578063a217fddf14611b0a578063a6312e26146119fd578063abd62253146116f5578063ad3cb1cc146116ae578063b485993d1461155b578063bd2a051014610e78578063c5c4024714610c70578063cc845afd14610bb4578063d547741f14610b65578063db87714214610b4a578063e3919c0814610ab1578063e4b0b21b146108e2578063e64a7b2014610834578063eb1dcc721461046f578063ec87621c14610435578063f4d645271461040d578063fcb881ad146101f55763ff90ee07146101d4575f80fd5b346101f1575f3660031901126101f1576020600e54604051908152f35b5f80fd5b346101f15760203660031901126101f15761020e613dd8565b6102166142a6565b506102356040805167943694cfa52436c0602082015260208152613e3b565b6102536040805167bd5fa51d609ae001602082015260208152613e3b565b61027160408051677ac4e9555c34a2cc602082015260208152613e3b565b60018060a01b03165f52600660205260405f20546102a36040805167b191e61a40cb5eaf602082015260208152613e3b565b6102c1604080516761d9e2140055a357602082015260208152613e3b565b806102f3576102e46040805167c006411305fdf6ac602082015260208152613e3b565b63bf8f5d9b60e01b5f5260045ffd5b6103116040805167345a04a1347837ac602082015260208152613e3b565b61032f60408051676ff7cdd164a56936602082015260208152613e3b565b61034d6040805167508766686599c974602082015260208152613e3b565b5f52600560205261040960405f20600a6040519161036a83613e04565b8054835260018101546001600160a01b0316602084015261038d6002820161407b565b604084015261039e6003820161407b565b606084015260ff6004820154166103b481613f4f565b6080840152600581015460a0840152600681015460c0840152600781015460e0840152600881015461010084015260098101546101208401520154610140820152604051918291602083526020830190613f6d565b0390f35b346101f1575f3660031901126101f157600c546040516001600160a01b039091168152602090f35b346101f1575f3660031901126101f15760206040517f241ecf16d79d0f8dbfb92cbc07fe17840425976cf0667f022fe9877caa831b088152f35b346101f15760603660031901126101f1576004356024356044356104a760408051670b383a6546eaed5c602082015260208152613e3b565b6104af614733565b6104cd6040805167107d27af2dfa7fd3602082015260208152613e3b565b6104eb604080516763ea110f8928a905602082015260208152613e3b565b6105096040805167aa7163a85ea6d485602082015260208152613e3b565b61052760408051673cde5c84de7de77b602082015260208152613e3b565b600c546001600160a01b0316331461056657610557604080516726e440f5078d36ef602082015260208152613e3b565b631a27eac360e11b5f5260045ffd5b61058460408051671ff307bcb62ecfcd602082015260208152613e3b565b6105a260408051671da88f6403cfa4d7602082015260208152613e3b565b6105c06040805167c451853d87dbdb97602082015260208152613e3b565b5f838152600560205260409020600101546001600160a01b03166105fc576102e46040805167246892f5f1553041602082015260208152613e3b565b7f5e7ab246576e41d95b248ec3bd7e9cffdb923601b8bd93a32e1111d0eace3e159160609161063f60408051675d05a2aea0ade13d602082015260208152613e3b565b61065d6040805167cabe4586897445bf602082015260208152613e3b565b61067b6040805167c93995f1b7bb4965602082015260208152613e3b565b845f526005602052600860405f206106a76040805167ad789bdb50acd0ff602082015260208152613e3b565b600681016106b68582546142f8565b90556106d660408051673fbe5669673c1d66602082015260208152613e3b565b600781016106e58482546142f8565b905561070560408051671cb0b0c7241ad0ea602082015260208152613e3b565b016107108154614148565b9055610730604080516752a0d993a16a1cb8602082015260208152613e3b565b61074e60408051679d9b8809b8b38043602082015260208152613e3b565b604051918252602082015260016040820152a261077f6040805167ed4ba68f6d4b27fb602082015260208152613e3b565b61079d6040805167546900a52e8cfce9602082015260208152613e3b565b6107ac600d54600e54906142f8565b4210610816576107d06040805167b88423e5164ea1ff602082015260208152613e3b565b6107ee604080516705e1769c152f9bfd602082015260208152613e3b565b61080c60408051678f3ebe79b31a571a602082015260208152613e3b565b61081461475a565b005b6108146040805167df017a32934cdf8e602082015260208152613e3b565b346101f1575f3660031901126101f157610862604080516743a9cac56a35c1e0602082015260208152613e3b565b61086a614733565b610888604080516795b509982e1256e1602082015260208152613e3b565b6108a660408051673b756a4a5807daaa602082015260208152613e3b565b6108c460408051678cb789c6d86ba0e3602082015260208152613e3b565b61080c6040805167b77ec5013324da26602082015260208152613e3b565b346101f1575f3660031901126101f1575f54600154906002546040515f816003549161090d83614043565b8083529260018116908115610a925750600114610a33575b61093192500382613e3b565b604051915f60045461094281614043565b8086529060018116908115610a1057506001146109b7575b509160ff6109a9926109728661040997960386613e3b565b6040519788978852602088015260018060a01b038116604088015260a01c161515606086015260c0608086015260c0850190613f2b565b9083820360a0850152613f2b565b60045f90815291507f8a35acfbc15ff81a39ae7d344fd709f28e8600b4aa8c65c6b64bfe7fe36bd19b5b8183106109f6575050830160200160ff61095a565b6001816020929493945483858a01015201910191906109e1565b60ff191660208088019190915291151560051b8601909101915060ff905061095a565b5060035f90815290917fc2575a0e9e593c00f959f8c92f12db2869c3395a3b0502d05e2516446f71f85b5b818310610a7657505090602061093192820101610925565b6020919350806001915483858801015201910190918392610a5e565b6020925061093194915060ff191682840152151560051b820101610925565b346101f15760203660031901126101f157610ae060408051675c2ca82d22096652602082015260208152613e3b565b610ae8614305565b610b066040805167ecedc5634b892f73602082015260208152613e3b565b610b2460408051670e738b670289b802602082015260208152613e3b565b610b4260408051670d793afcabe0ac12602082015260208152613e3b565b600435600e55005b346101f1575f3660031901126101f157602060405160648152f35b346101f15760403660031901126101f157610814600435610b84613dee565b90610baf610baa825f525f5160206151e45f395f51905f52602052600160405f20015490565b614432565b614697565b346101f1575f3660031901126101f157610be260408051676e4e724788e31bf8602082015260208152613e3b565b610c006040805167358c7d2f8dabe640602082015260208152613e3b565b610c1e6040805167efce51c166dc17ed602082015260208152613e3b565b604051600854808252602082019060085f5260205f20905f5b818110610c5a5761040985610c4e81870382613e3b565b6040519182918261400a565b8254845260209093019260019283019201610c37565b346101f15760403660031901126101f15760043560243560038110156101f157610cae60408051674d7b6bc884d836a9602082015260208152613e3b565b610cb6614374565b610cd460408051670775d09eaaeaf314602082015260208152613e3b565b610cf260408051675d6c251288c96cca602082015260208152613e3b565b610cfa614733565b610d186040805167a6d81fa18cb37d8f602082015260208152613e3b565b610d3660408051676fc2b46082979ddb602082015260208152613e3b565b610d54604080516785dd8ec98d8a3d57602082015260208152613e3b565b610d7260408051675ff7cb8ec8fed7a0602082015260208152613e3b565b5f828152600560205260409020600101546001600160a01b0316610dae576102e46040805167cac8457a80f0f264602082015260208152613e3b565b60207f81c3452c69912013558d4dbe636120398d141ba7cbeaec91b083522d854d130891610dee6040805167f8c0f4b0e9026fdb85820152848152613e3b565b610e0a60408051671074cd975f786f3285820152848152613e3b565b835f5260058252600460405f2001610e2182613f4f565b60ff1981541660ff8316179055610e4a60408051676ca8cbb7b221a4e285820152848152613e3b565b610e66604080516742962f4ce8abba5285820152848152613e3b565b60405190610e7381613f4f565b8152a2005b346101f15760a03660031901126101f157600435610e94613dee565b906044356001600160401b0381116101f157610eb4903690600401613ead565b906064356001600160401b0381116101f157610ed4903690600401613ead565b60849591953591610ef960408051675758f87b9783f233602082015260208152613e3b565b610f01614305565b610f1f6040805167e6cdd658bb4ccfb8602082015260208152613e3b565b610f3d60408051679856330932316e69602082015260208152613e3b565b610f45614733565b610f636040805167160d2f8f80111a0e602082015260208152613e3b565b610f816040805167ecf7988c9e27f96c602082015260208152613e3b565b610f9f60408051678f75c61bf893bd6d602082015260208152613e3b565b610fbd604080516761af1d36355134c2602082015260208152613e3b565b6001600160a01b03169586610ff957610fea604080516768ef22e7a23e2f86602082015260208152613e3b565b63126d6fa360e21b5f5260045ffd5b6110176040805167ed836fa84796cf3e602082015260208152613e3b565b611035604080516720ff173c5189622f602082015260208152613e3b565b6110536040805167de2c9f0b23bfed76602082015260208152613e3b565b5f868152600560205260409020600101546001600160a01b03161561109f576110906040805167606da94b323fa55e602082015260208152613e3b565b639437c1b560e01b5f5260045ffd5b6110bd604080516784822750632f44d3602082015260208152613e3b565b6110db6040805167e751793b5d804afb602082015260208152613e3b565b6110f9604080516777ce71f86f0c68c1602082015260208152613e3b565b6127108311156111305761112160408051677ba14deaa74bd1e5602082015260208152613e3b565b63047f2a9760e51b5f5260045ffd5b61114e6040805167aeecc405ea569f55602082015260208152613e3b565b61116b604080516648885e76bfbd19602082015260208152613e3b565b61118960408051679f05fb3c1e8d68c8602082015260208152613e3b565b855f52600560205260405f20916111b4604080516715bfbe41c4f96147602082015260208152613e3b565b8683556111d560408051679ddb117f013df23d602082015260208152613e3b565b60018301886001600160601b0360a01b82541617905561120960408051678ab5047b2e6cf0e5602082015260208152613e3b565b600283016001600160401b0387116114665761122f876112298354614043565b8361416a565b5f87601f81116001146114f8578061125b925f916114ed575b508160011b915f199060031b1c19161790565b90555b61127c6040805167496d40ccf234e690602082015260208152613e3b565b60038301916001600160401b038211611466576112a38261129d8554614043565b8561416a565b5f90601f83116001146114855791806112d692600a9695945f9261147a575b50508160011b915f199060031b1c19161790565b90555b6112f76040805167a65ae081306a37ef602082015260208152613e3b565b6004810160ff19815416905561132160408051676270d445a9457a8e602082015260208152613e3b565b426005820155611345604080516720f2fccdd56c3dce602082015260208152613e3b565b015561136560408051674ccf17a45f3c7e8b602082015260208152613e3b565b835f5260066020528260405f20556113916040805167532421260efb515c602082015260208152613e3b565b6113af60408051678195d5992b6f49a7602082015260208152613e3b565b60085491600160401b831015611466578361140c6113f68560017f38ed3fa9816d2c50b6555a5cdca1c3b321e08bb95cd0949696c3bd833cdbc31f97016008556008614133565b819391549060031b91821b915f19901b19161790565b905561142c604080516787beed3264b20e98602082015260208152613e3b565b61144a6040805167f095e69d933d0c5a602082015260208152613e3b565b6114616040519283926020845260208401916141b9565b0390a3005b634e487b7160e01b5f52604160045260245ffd5b013590508b806112c2565b601f19831691845f5260205f20925f5b8181106114d55750916001939185600a98979694106114bc575b505050811b0190556112d9565b01355f19600384901b60f8161c191690558a80806114af565b91936020600181928787013581550195019201611495565b90508801358c611248565b50601f19881690825f528860205f20925f5b818110611540575010611527575b5050600187811b01905561125e565b8701355f1960038a901b60f8161c191690558980611518565b8a84013585556001909401936020938401938c93500161150a565b346101f15760203660031901126101f15760043561158d6040805167682c3036dd5e2c4d602082015260208152613e3b565b6115ab60408051670ccd473bc9852f7f602082015260208152613e3b565b6115c96040805167010e22379921f767602082015260208152613e3b565b5f818152600560205260409020600101546001600160a01b0316611605576102e460408051678e01c5597a08498d602082015260208152613e3b565b61162360408051676bb8dc343ee5e483602082015260208152613e3b565b61164160408051676d302fd9d9d8a691602082015260208152613e3b565b61165f6040805167d0918e834e277270602082015260208152613e3b565b5f52600760205260405f2060405190805480835260208301915f5260205f20905f5b8181106116985761040985610c4e81870382613e3b565b8254845260209093019260019283019201611681565b346101f1575f3660031901126101f1576104096040516116cf604082613e3b565b60058152640352e302e360dc1b6020820152604051918291602083526020830190613f2b565b346101f1575f3660031901126101f1575f5f5f6117266040805167a6e574e1b1861a9f602082015260208152613e3b565b6117446040805167188cc98f45d5d841602082015260208152613e3b565b600854916117666040805167c8dcab7b43c577aa602082015260208152613e3b565b6117846040805167e1589f641c5e3b44602082015260208152613e3b565b5f5b8381106117e457506080936117af60408051679fe944e05b6f2931602082015260208152613e3b565b6117cd6040805167f98540e5c157e615602082015260208152613e3b565b604051938452602084015260408301526060820152f35b91611803604080516702a5acd8e80478d7602082015260208152613e3b565b61182160408051672d2e11c940f489d1602082015260208152613e3b565b61182a8361411b565b90549060031b1c5f52600560205260405f20916040519561184a87613e04565b8354875260018401546001600160a01b0316602088015261186d6002850161407b565b604088015261187e6003850161407b565b606088015260ff600485015416608088019061189981613f4f565b8152600585015460a089015260068501549760c08101988952610140600a60078801549760e084019889526008810154610100850152600981015461012085015201549101526118fd60408051676287e8415655a3a1602082015260208152613e3b565b61191b6040805167891a9734d828a057602082015260208152613e3b565b5161192581613f4f565b61192e81613f4f565b6119ce57916119a86119c79261198160019561195e6040805167f9d1f8265605e385602082015260208152613e3b565b61197c60408051671b0f5077b4b47b26602082015260208152613e3b565b614148565b985b6119a160408051673a8572aa0c01c0a5602082015260208152613e3b565b51906142f8565b936119a1604080516798aad9954e6b8f25602082015260208152613e3b565b9201611786565b95916119a86119c7926001946119f860408051677afc4e109b9b929e602082015260208152613e3b565b611983565b346101f15760203660031901126101f157600435611a196142a6565b50611a386040805167a562628b84999ec4602082015260208152613e3b565b611a566040805167632e7ec3603ef76c602082015260208152613e3b565b611a7460408051677c0cef679dd49072602082015260208152613e3b565b5f818152600560205260409020600101546001600160a01b0316611ab0576102e46040805167d06b36c83959df99602082015260208152613e3b565b611ace6040805167838d90304f6d8fe4602082015260208152613e3b565b611aec6040805167ab59c9a2802b5fec602082015260208152613e3b565b61034d604080516716bb109e324a9066602082015260208152613e3b565b346101f1575f3660031901126101f15760206040515f8152f35b346101f15760403660031901126101f157611b3d613dee565b6004355f525f5160206151e45f395f51905f5260205260405f209060018060a01b03165f52602052602060ff60405f2054166040519015158152f35b346101f15760203660031901126101f1576004356001600160401b0381116101f157366023820112156101f15780600401356001600160401b0381116101f1573660248260051b840101116101f157611be66040805167ba2e01d0f9da561e602082015260208152613e3b565b611c046040805167edc461e1e662062a602082015260208152613e3b565b611c2260408051676497a4541e907859602082015260208152613e3b565b611c2b816141d9565b91611c396040519384613e3b565b818352601f19611c48836141d9565b015f5b818110611e26575050611c7260408051671036842f8d2bcb1f602082015260208152613e3b565b611c90604080516717b052861287ac05602082015260208152613e3b565b5f5b82811015611d8357600190611cbb604080516708c9fb1aa8c0d5b3602082015260208152613e3b565b60248160051b840101355f52600560205260405f20600a60405191611cdf83613e04565b80548352848060a01b0385820154166020840152611cff6002820161407b565b6040840152611d106003820161407b565b606084015260ff600482015416611d2681613f4f565b6080840152600581015460a0840152600681015460c0840152600781015460e0840152600881015461010084015260098101546101208401520154610140820152611d71828761426a565b52611d7c818661426a565b5001611c92565b83611da260408051677e000b523472cc67602082015260208152613e3b565b611dc06040805167d4460a62ec6fd6de602082015260208152613e3b565b6040518091602082016020835281518091526040830190602060408260051b8601019301915f905b828210611df757505050500390f35b91936001919395506020611e168192603f198a82030186528851613f6d565b9601920192018594939192611de8565b602090611e316142a6565b82828801015201611c4b565b346101f15760203660031901126101f157600435611e6f60408051677e509d425b5fad74602082015260208152613e3b565b611e8d604080516778ea36488d9d8b5d602082015260208152613e3b565b611eab6040805167387e5ba3392cce28602082015260208152613e3b565b6064811115611ee157611ed26040805167bb37de711125d02d602082015260208152613e3b565b632585a95b60e01b5f5260045ffd5b611eff6040805167cc8b9dae3c372f11602082015260208152613e3b565b611f1d60408051678596db9a16334b41602082015260208152613e3b565b611f3b6040805167450214dd2ae930be602082015260208152613e3b565b6009549081811180156120eb575b806120c2575b156120bb57505b611f746040805167986c93f4c03fcd4f602082015260208152613e3b565b611f926040805167249437e8e33bc23a602082015260208152613e3b565b611f9b816141f0565b90611fba6040805167191fd5e058b10bfc602082015260208152613e3b565b611fd8604080516784223f07745b218a602082015260208152613e3b565b6009545f5b82811061203057610409846120066040805167cd877f0377543f2a602082015260208152613e3b565b6120246040805167305ed7323344e033602082015260208152613e3b565b60405191829182613eda565b61204e60408051671b1180865ee37cf3602082015260208152613e3b565b818110156120a75760095f5260019061208b600382027f6e1540171b6c0c960b71a7020d9f60077f6af931a8bbf590da0223dacf75c7af0161427e565b612095828761426a565b526120a0818661426a565b5001611fdd565b634e487b7160e01b5f52603260045260245ffd5b9050611f56565b506120e460408051672b0f1ef0e6a9cc1560c11b602082015260208152613e3b565b6001611f4f565b5061210d604080516713d138ae8f99fde360c01b602082015260208152613e3b565b5f611f49565b346101f15760203660031901126101f1576004356121456040805167ab80fcd2c9840b99602082015260208152613e3b565b6121636040805167a69acb3d6369f024602082015260208152613e3b565b6121816040805167365479506736cd96602082015260208152613e3b565b60648111156121a857611ed260408051670fd923f7aef18848602082015260208152613e3b565b6121c66040805167fd0edae15d0911e6602082015260208152613e3b565b6121e4604080516733627f96f89e6228602082015260208152613e3b565b612202604080516735334993d0ce2c02602082015260208152613e3b565b600a54908181118015612392575b80612369575b1561236257505b61223b6040805167b4d6f75e577c2656602082015260208152613e3b565b61225960408051674a298ee0de218b66602082015260208152613e3b565b612262816141f0565b906122816040805167c039bf2bc353263b602082015260208152613e3b565b61229f6040805167438086d401f00ea4602082015260208152613e3b565b600a545f5b8281106122eb57610409846122cd6040805167522a9addb8d43dc0602082015260208152613e3b565b612024604080516740352a80cb380195602082015260208152613e3b565b6123096040805167d8af1e312d49d13d602082015260208152613e3b565b818110156120a757600a5f52600190612346600382027fc65a7bb8d6351c1cf70c95a316cc6a92839c986682d98bc35f958f4883f9d2a80161427e565b612350828761426a565b5261235b818661426a565b50016122a4565b905061221d565b5061238b6040805167121fc3d2c73f291360c01b602082015260208152613e3b565b6001612216565b506123b460408051670585efb0b93d5e2360c41b602082015260208152613e3b565b5f612210565b346101f1575f3660031901126101f1576123e86040805167f3cdc8e87d44938c602082015260208152613e3b565b6123f0614305565b61240e604080516772ef38a975896564602082015260208152613e3b565b61242c60408051671e007b901c700c84602082015260208152613e3b565b61244a60408051674960522a2b10437b602082015260208152613e3b565b612468604080516753ded5a77738b583602082015260208152613e3b565b612470614733565b600160ff195f5160206152045f395f51905f525416175f5160206152045f395f51905f52557f62e78cea01bee320cd4e420270b5ea74000d11b0c9f74754ebdbfc544b05a2586020604051338152a1005b346101f1575f3660031901126101f15760206040517fa49807205ce4d355092ef5a8a18f56e8913cf4a201fbe287825b095693c217758152f35b346101f15760203660031901126101f15760043561252d60408051678d94ab6c8e823624602082015260208152613e3b565b61254b604080516710eebc1819826ff2602082015260208152613e3b565b6125696040805167669cd00129dc55df602082015260208152613e3b565b606481111561259057611ed26040805167e237431235b738c4602082015260208152613e3b565b6125ae604080516751dfba6cd48bafa4602082015260208152613e3b565b6125cc60408051675cc5c1ebe374a0f3602082015260208152613e3b565b6125ea604080516713bf9c55d690db97602082015260208152613e3b565b600b5490818111801561277a575b80612751575b1561274a57505b6126236040805167d0d619db32749af8602082015260208152613e3b565b6126416040805167a71deb49d8c0e54b602082015260208152613e3b565b61264a816141f0565b906126696040805167fb44c92b311e3ea7602082015260208152613e3b565b6126876040805167d561bea470312855602082015260208152613e3b565b600b545f5b8281106126d357610409846126b560408051671845195376e15cb3602082015260208152613e3b565b6120246040805167c6ff8c98cd40dff3602082015260208152613e3b565b6126f1604080516775b166d6cb115541602082015260208152613e3b565b818110156120a757600b5f5260019061272e600382027f0175b7a638427703f0dbe7bb9bbf987a2551717b34e79f33b5b1008d1fa01db90161427e565b612738828761426a565b52612743818661426a565b500161268c565b9050612605565b50612773604080516757dffebd0e05210d60c11b602082015260208152613e3b565b60016125fe565b5061279c60408051672b2b17e680a7e6df60c21b602082015260208152613e3b565b5f6125f8565b346101f1575f3660031901126101f1576127d0604080516757697fa7c50923ee602082015260208152613e3b565b6127ee60408051670d4f23e5405de5ed602082015260208152613e3b565b61280c604080516779565a3e99e45ff4602082015260208152613e3b565b6020600854604051908152f35b346101f15760403660031901126101f15760043560243561284e60408051678003e1299254ce88602082015260208152613e3b565b612856614305565b6128746040805167a6984ed072480de9602082015260208152613e3b565b61289260408051677f1fa4ae651324f7602082015260208152613e3b565b61289a614733565b6128b860408051679abcb90fb9ef35f5602082015260208152613e3b565b6128d660408051672b7dcec6f6d68c88602082015260208152613e3b565b6128f46040805167dca4a27635c230bc602082015260208152613e3b565b6129126040805167a720d4cc392848c5602082015260208152613e3b565b5f828152600560205260409020600101546001600160a01b031661294e576102e46040805167e2e72c39ca14705d602082015260208152613e3b565b61296c6040805167d45485fcc09f8d5a602082015260208152613e3b565b61298a6040805167b5e38c273321a8a3602082015260208152613e3b565b6129a86040805167b99101d3c633fc75602082015260208152613e3b565b6127108111156129d05761112160408051670c8aad78f44e37fd602082015260208152613e3b565b60207f7c75c434bfdf23800bd74b934a57571e906b2f1ef901f48d129cbf0bcd4c70bb91612a10604080516760d7ada18eb1efd685820152848152613e3b565b612a2c6040805167cb36280b00e385c985820152848152613e3b565b835f526005825280600a60405f200155612a586040805167407f7186c78674e485820152848152613e3b565b612a746040805167380a1e712f6fa18485820152848152613e3b565b604051908152a2005b346101f1575f3660031901126101f157602060ff5f5160206152045f395f51905f5254166040519015158152f35b346101f15760603660031901126101f1576004356024356001600160401b0381116101f157612ade903690600401613ead565b91906044356001600160401b0381116101f157612aff903690600401613ead565b9390612b1f6040805167c06e6536a550d5d6602082015260208152613e3b565b612b276143e3565b612b456040805167a3d1996659e4b152602082015260208152613e3b565b612b63604080516790ccd81c9cb11c03602082015260208152613e3b565b612b8160408051672402158780ebace2602082015260208152613e3b565b612b9f60408051677ae05e7a00c38abd602082015260208152613e3b565b612bbd6040805167abeedb8954df6644602082015260208152613e3b565b600154612fa757612be2604080516780dc4f60641ede96602082015260208152613e3b565b612c006040805167226cae2899a7298e602082015260208152613e3b565b60405160c081018181106001600160401b03821117611466576040528481526020810142815260408201338152606083019060018252612c41368789613e77565b9260808501938452612c54368b88613e77565b60a080870191825295515f55905160015590516002805493516001600160a81b03199094166001600160a01b03929092169190911792151590941b60ff60a01b1691909117909255518051906001600160401b03821161146657612cb9600354614043565b601f8111612f44575b50602090601f8311600114612edf57612cf192915f9183612ed45750508160011b915f199060031b1c19161790565b6003555b519485516001600160401b03811161146657612d12600454614043565b601f8111612e71575b506020601f8211600114612de65781612dd6949392612d71927f5a4b9f27a26618330986254014b0a0081a144ab6878da8d57d4d1e176ce915bf999a5f92612ddb5750508160011b915f199060031b1c19161790565b6004555b612d936040805167666cb8e9409f629e602082015260208152613e3b565b612db16040805167b7c8ab4201e2a07f602082015260208152613e3b565b612dc86040519586956040875260408701916141b9565b9184830360208601526141b9565b0390a2005b015190508a806112c2565b601f1982169760045f52815f20985f5b818110612e595750986001928492612dd69796957f5a4b9f27a26618330986254014b0a0081a144ab6878da8d57d4d1e176ce915bf9b9c10612e41575b505050811b01600455612d75565b01515f1960f88460031b161c19169055898080612e33565b838301518b556001909a019960209384019301612df6565b60045f527f8a35acfbc15ff81a39ae7d344fd709f28e8600b4aa8c65c6b64bfe7fe36bd19b601f830160051c81019160208410612eca575b601f0160051c01905b818110612ebf5750612d1b565b5f8155600101612eb2565b9091508190612ea9565b0151905089806112c2565b90601f1983169160035f52815f20925f5b818110612f2c5750908460019594939210612f14575b505050811b01600355612cf5565b01515f1960f88460031b161c19169055888080612f06565b92936020600181928786015181550195019301612ef0565b60035f527fc2575a0e9e593c00f959f8c92f12db2869c3395a3b0502d05e2516446f71f85b601f840160051c81019160208510612f9d575b601f0160051c01905b818110612f925750612cc2565b5f8155600101612f85565b9091508190612f7c565b60405162461bcd60e51b8152602060048201526012602482015271105b1c9958591e4818dbdb999a59dd5c995960721b6044820152606490fd5b346101f1575f3660031901126101f1577f00000000000000000000000000000000000000000000000000000000000000006001600160a01b031630036130385760206040515f5160206151c45f395f51905f528152f35b63703e46dd60e11b5f5260045ffd5b60403660031901126101f15761305b613dd8565b6024356001600160401b0381116101f157366023820112156101f15761308b903690602481600401359101613e77565b6001600160a01b037f000000000000000000000000000000000000000000000000000000000000000016308114908115613284575b50613038576130e36040805167afcb641db7e709d0602082015260208152613e3b565b6130eb6143e3565b61310960408051672b2ed9d620bf483e602082015260208152613e3b565b6131276040805167d982679611cdca9a602082015260208152613e3b565b6040516352d1902d60e01b81526001600160a01b0383169290602081600481875afa5f9181613250575b506131695783634c9c8ce360e01b5f5260045260245ffd5b805f5160206151c45f395f51905f5285920361323e5750813b1561322c575f5160206151c45f395f51905f5280546001600160a01b031916821790557fbc7cd75a20ee27fd9adebab32041f755214dbc6bffa90cc0225b39da2e5c2d3b5f80a2815115613214575f8083602061081495519101845af43d1561320c573d916131f083613e5c565b926131fe6040519485613e3b565b83523d5f602085013e615165565b606091615165565b50503461321d57005b63b398979f60e01b5f5260045ffd5b634c9c8ce360e01b5f5260045260245ffd5b632a87526960e21b5f5260045260245ffd5b9091506020813d60201161327c575b8161326c60209383613e3b565b810103126101f157519085613151565b3d915061325f565b5f5160206151c45f395f51905f52546001600160a01b031614159050836130c0565b346101f15760403660031901126101f1576132bf613dd8565b6132c7613dee565b906132e66040805167d385533753bb392b602082015260208152613e3b565b5f5160206152245f395f51905f52549160ff8360401c1615926001600160401b03811680159081613790575b6001149081613786575b15908161377d575b5061376e5767ffffffffffffffff1981166001175f5160206152245f395f51905f525583613742575b5061336c6040805167bedc5bfb37aad42f602082015260208152613e3b565b61338a6040805167b0585721d4b578c1602082015260208152613e3b565b6133a86040805167f7ed73543855d20c602082015260208152613e3b565b6133c660408051678b760b48ae2558d0602082015260208152613e3b565b6001600160a01b0382166133f257610fea60408051675c911b64e21901dd602082015260208152613e3b565b61341060408051673c0cc76a96d78c3c602082015260208152613e3b565b61342e60408051672f26e127d68901c2602082015260208152613e3b565b61344c6040805167f76aef9ea7af851c602082015260208152613e3b565b6001600160a01b03169081613488576134796040805167a28eac7bc87ddf86602082015260208152613e3b565b6316f94a0360e01b5f5260045ffd5b61366d906134aa6040805167f715d363f8c069da602082015260208152613e3b565b6134c86040805167d079c19134935140602082015260208152613e3b565b6134e660408051679ee7af07578e1345602082015260208152613e3b565b6134ee61513a565b61350c60408051670595519dcf4e5e2e602082015260208152613e3b565b61352a60408051673b47450a0ff9b239602082015260208152613e3b565b61353261513a565b613550604080516740cb0824894e5ae0602082015260208152613e3b565b61356e6040805167d8798398bcc64e86602082015260208152613e3b565b61357661513a565b61357e61513a565b60017f9b779b17422d0df92223018b32b4d1fa46e071723d6817e2486d003becc55f00556135c06040805167a63faa98962fcdb2602082015260208152613e3b565b6135de60408051674bb239085c4a2c16602082015260208152613e3b565b6135e661513a565b6136046040805167b9bd6802b8579e45602082015260208152613e3b565b61362260408051670f63bf06e92f378d602082015260208152613e3b565b61362b81614478565b5061364a6040805167183c5c5355e6256d602082015260208152613e3b565b6136686040805167cc05d36e937c512c602082015260208152613e3b565b614527565b5061368c6040805167fa9e9c06ba763712602082015260208152613e3b565b6001600160601b0360a01b600c541617600c556136bd6040805167c8a06a4d7c654803602082015260208152613e3b565b61012c600e556136e1604080516744c2315f0b0610a5602082015260208152613e3b565b42600d556136eb57005b68ff0000000000000000195f5160206152245f395f51905f5254165f5160206152245f395f51905f52557fc7f505b2f371ae2175ee4913f4499e1f2633a7b5936321eed1cdaeb6115181d2602060405160018152a1005b68ffffffffffffffffff191668010000000000000001175f5160206152245f395f51905f52558361334d565b63f92ee8a960e01b5f5260045ffd5b90501585613324565b303b15915061331c565b859150613312565b346101f15760403660031901126101f157600435602435906137ce6040805167bd2689f7b0af0ab4602082015260208152613e3b565b6137d6614374565b6137f46040805167a2558760963dc8ef602082015260208152613e3b565b613812604080516708977b6f76af5aea602082015260208152613e3b565b61381a614733565b61383860408051670ddd9d9dffa1ba79602082015260208152613e3b565b61385660408051673c8197139871f721602082015260208152613e3b565b61387460408051671182cc3237c71d06602082015260208152613e3b565b6138926040805167799889d73e8b9738602082015260208152613e3b565b5f818152600560205260409020600101546001600160a01b03166138ce576102e46040805167fb5b38babaa1db50602082015260208152613e3b565b6138ec6040805167d3a5632a81cf5e86602082015260208152613e3b565b61390a60408051677d070ed9714e7aa8602082015260208152613e3b565b61392860408051673d869e70fde446b8602082015260208152613e3b565b805f52600760205260405f208054600160401b811015611466576113f6818593600161395694018155614133565b905561397660408051679bacd7ad30fbfb09602082015260208152613e3b565b805f526005602052600960405f200161398f8154614148565b90556139af6040805167caac2f955a458f0c602082015260208152613e3b565b6139cd60408051671e3d0abb9a9fd63d602082015260208152613e3b565b7fdd0ab4000d1f14d8ddf8b6068d030609c0c5836d5a2bb209510be9ba1fc6d1695f80a3005b346101f1575f3660031901126101f157613a21604080516773c36d27eb3a6f53602082015260208152613e3b565b613a29614305565b613a47604080516733243aadd9f8ffd0602082015260208152613e3b565b613a65604080516737c65ca209e0539d602082015260208152613e3b565b613a8360408051674836fda4738648d0602082015260208152613e3b565b613aa160408051674e7fb537cca9a7ad602082015260208152613e3b565b5f5160206152045f395f51905f525460ff811615613af85760ff19165f5160206152045f395f51905f52557f5db9ee0a495bf2e6ff9c91a7834c1ba4fdd244a5e8aa4e537bd38aeae4b073aa6020604051338152a1005b638dfc202b60e01b5f5260045ffd5b346101f15760403660031901126101f157613b20613dee565b336001600160a01b03821603613b3c5761081490600435614697565b63334bd91960e11b5f5260045ffd5b346101f15760403660031901126101f157610814600435613b6a613dee565b90613b90610baa825f525f5160206151e45f395f51905f52602052600160405f20015490565b6145f3565b346101f15760203660031901126101f1576020613bcc6004355f525f5160206151e45f395f51905f52602052600160405f20015490565b604051908152f35b346101f1575f3660031901126101f15760206040516127108152f35b346101f15760203660031901126101f157613c09613dd8565b613c2760408051670675f9a2b29db6d5602082015260208152613e3b565b613c2f614305565b613c4d60408051676c67e19d3746d6fa602082015260208152613e3b565b613c6b604080516731e2ded4591d348a602082015260208152613e3b565b613c89604080516786b8c09d5030c407602082015260208152613e3b565b613ca76040805167c1418a6559c4b587602082015260208152613e3b565b6001600160a01b031680613cd3576134796040805167e75156ebd5f74742602082015260208152613e3b565b613cf16040805167665670b78322a861602082015260208152613e3b565b613d0f6040805167e3218e6fff43896d602082015260208152613e3b565b806001600160601b0360a01b600c541617600c55613d4160408051676391ed46a4b65b5b602082015260208152613e3b565b613d5f6040805167d954e1898c741c05602082015260208152613e3b565b7f696888919ad66cb56761ce64dd99953ce71596a2c63bf2eb5d27c9d2570a2a855f80a2005b346101f15760203660031901126101f1576004359063ffffffff60e01b82168092036101f157602091637965db0b60e01b8114908115613dc7575b5015158152f35b6301ffc9a760e01b14905083613dc0565b600435906001600160a01b03821682036101f157565b602435906001600160a01b03821682036101f157565b61016081019081106001600160401b0382111761146657604052565b606081019081106001600160401b0382111761146657604052565b90601f801991011681019081106001600160401b0382111761146657604052565b6001600160401b03811161146657601f01601f191660200190565b929192613e8382613e5c565b91613e916040519384613e3b565b8294818452818301116101f1578281602093845f960137010152565b9181601f840112156101f1578235916001600160401b0383116101f157602083818601950101116101f157565b60206040818301928281528451809452019201905f5b818110613efd5750505090565b9091926020606060019260408751805183528481015185840152015160408201520194019101919091613ef0565b805180835260209291819084018484015e5f828201840152601f01601f1916010190565b60031115613f5957565b634e487b7160e01b5f52602160045260245ffd5b908151815260018060a01b03602083015116602082015261014080613fb8613fa660408601516101606040870152610160860190613f2b565b60608601518582036060870152613f2b565b936080810151613fc781613f4f565b608085015260a081015160a085015260c081015160c085015260e081015160e0850152610100810151610100850152610120810151610120850152015191015290565b60206040818301928281528451809452019201905f5b81811061402d5750505090565b8251845260209384019390920191600101614020565b90600182811c92168015614071575b602083101461405d57565b634e487b7160e01b5f52602260045260245ffd5b91607f1691614052565b9060405191825f82549261408e84614043565b80845293600181169081156140f957506001146140b5575b506140b392500383613e3b565b565b90505f9291925260205f20905f915b8183106140dd5750509060206140b3928201015f6140a6565b60209193508060019154838589010152019101909184926140c4565b9050602092506140b394915060ff191682840152151560051b8201015f6140a6565b6008548110156120a75760085f5260205f2001905f90565b80548210156120a7575f5260205f2001905f90565b5f1981146141565760010190565b634e487b7160e01b5f52601160045260245ffd5b601f821161417757505050565b5f5260205f20906020601f840160051c830193106141af575b601f0160051c01905b8181106141a4575050565b5f8155600101614199565b9091508190614190565b908060209392818452848401375f828201840152601f01601f1916010190565b6001600160401b0381116114665760051b60200190565b906141fa826141d9565b6142076040519182613e3b565b8281528092614218601f19916141d9565b01905f5b82811061422857505050565b60209060405161423781613e20565b5f81525f838201525f60408201528282850101520161421c565b80548210156120a7575f52600360205f20910201905f90565b80518210156120a75760209160051b010190565b9060405161428b81613e20565b60406002829480548452600181015460208501520154910152565b604051906142b382613e04565b5f61014083828152826020820152606060408201526060808201528260808201528260a08201528260c08201528260e082015282610100820152826101208201520152565b9190820180921161415657565b335f9081527fb16e88c42fd4e48df2dd6a2eabd6bc9aec654ec170056b470819f8892cc6431c602052604090205460ff161561433d57565b63e2517d3f60e01b5f52336004527fa49807205ce4d355092ef5a8a18f56e8913cf4a201fbe287825b095693c2177560245260445ffd5b335f9081527f06484cc59dc38e4f67c31122333a17ca81b3ca18cdf02bfc298072fa52b0316a602052604090205460ff16156143ac57565b63e2517d3f60e01b5f52336004527f241ecf16d79d0f8dbfb92cbc07fe17840425976cf0667f022fe9877caa831b0860245260445ffd5b335f9081527fb7db2dd08fcb62d0c9e08c51941cae53c267786a0b75803fb7960902fc8ef97d602052604090205460ff161561441b57565b63e2517d3f60e01b5f52336004525f60245260445ffd5b5f8181525f5160206151e45f395f51905f526020908152604080832033845290915290205460ff16156144625750565b63e2517d3f60e01b5f523360045260245260445ffd5b6001600160a01b0381165f9081527fb7db2dd08fcb62d0c9e08c51941cae53c267786a0b75803fb7960902fc8ef97d602052604090205460ff16614522576001600160a01b03165f8181527fb7db2dd08fcb62d0c9e08c51941cae53c267786a0b75803fb7960902fc8ef97d60205260408120805460ff191660011790553391907f2f8788117e7eff1d82e926ec794901d17c78024a50270940304540a733656f0d8180a4600190565b505f90565b6001600160a01b0381165f9081527fb16e88c42fd4e48df2dd6a2eabd6bc9aec654ec170056b470819f8892cc6431c602052604090205460ff16614522576001600160a01b03165f8181527fb16e88c42fd4e48df2dd6a2eabd6bc9aec654ec170056b470819f8892cc6431c60205260408120805460ff191660011790553391907fa49807205ce4d355092ef5a8a18f56e8913cf4a201fbe287825b095693c21775907f2f8788117e7eff1d82e926ec794901d17c78024a50270940304540a733656f0d9080a4600190565b5f8181525f5160206151e45f395f51905f52602090815260408083206001600160a01b038616845290915290205460ff16614691575f8181525f5160206151e45f395f51905f52602090815260408083206001600160a01b0395909516808452949091528120805460ff19166001179055339291907f2f8788117e7eff1d82e926ec794901d17c78024a50270940304540a733656f0d9080a4600190565b50505f90565b5f8181525f5160206151e45f395f51905f52602090815260408083206001600160a01b038616845290915290205460ff1615614691575f8181525f5160206151e45f395f51905f52602090815260408083206001600160a01b0395909516808452949091528120805460ff19169055339291907ff6391f5c32d9c69d2a47ea670b442974b53935d1edc7fd64eb21e047a839171b9080a4600190565b60ff5f5160206152045f395f51905f52541661474b57565b63d93c066560e01b5f5260045ffd5b614778604080516764947e52b206b21d602082015260208152613e3b565b61479660408051679489a2597930126b602082015260208152613e3b565b6147b460408051672b8fce8f8fd0b51b602082015260208152613e3b565b6008546147d56040805167953443442fe94b51602082015260208152613e3b565b6147f360408051679566ab31bee39427602082015260208152613e3b565b8061483557506148176040805167e4c4e136239a870f602082015260208152613e3b565b6140b360408051677b47c87405611d23602082015260208152613e3b565b614853604080516769e780d0f11f4d50602082015260208152613e3b565b61487160408051676ab642aacd2620bb602082015260208152613e3b565b61488f604080516748fc83dcf2a8cc09602082015260208152613e3b565b614898816141f0565b906148b660408051661df3bad2dddd70602082015260208152613e3b565b6148d46040805167c6180a91793c8f7d602082015260208152613e3b565b6148dd816141f0565b6148fb6040805167a0a23bfb6ae174c5602082015260208152613e3b565b614919604080516769f6bd626aa3fea0602082015260208152613e3b565b614922826141f0565b9161494160408051678f1c06dd31e79648602082015260208152613e3b565b61495f60408051677737738acad9d260602082015260208152613e3b565b5f5b818110614fa4575061498760408051673df871410ebd40dd602082015260208152613e3b565b6149a560408051671c16f8f5f92aa407602082015260208152613e3b565b606481118015614f7c575b80614f53575b15614f4d57506064925b6149de60408051673d35ddb41f92518a602082015260208152613e3b565b6009545f60095580614ef0575b50614a0a6040805167aaed5b1a5a3ff845602082015260208152613e3b565b600a545f600a5580614e93575b50614a366040805167929c55c33f661861602082015260208152613e3b565b600b545f600b5580614e36575b50614a626040805167a9acfee6b24f0969602082015260208152613e3b565b614a806040805167e32b716b280250c8602082015260208152613e3b565b5f5b848110614bf5575050505050614aac60408051678b0ea7be303a2472602082015260208152613e3b565b42600d55614ace604080516792c993194dc88c40602082015260208152613e3b565b614aec604080516715c654d6012026c3602082015260208152613e3b565b7f22a32f769def3a6b535fcc1492f02037a2f62cb2b818e7602248c7750a8bb423604080514281525f6020820152a1614b396040805167f2aad7902dec17fd602082015260208152613e3b565b614b5760408051676ce4e725cfc7f29f602082015260208152613e3b565b7f22a32f769def3a6b535fcc1492f02037a2f62cb2b818e7602248c7750a8bb4236040805142815260016020820152a1614ba56040805167cd1c1f03af7a73fa602082015260208152613e3b565b614bc360408051677999578f8d393059602082015260208152613e3b565b7f22a32f769def3a6b535fcc1492f02037a2f62cb2b818e7602248c7750a8bb4236040805142815260026020820152a1565b614c13604080516719b63708a6d6a662602082015260208152613e3b565b6001810180821161415657806040614c2b848661426a565b510152614c4c6040805167443bed96779950c4602082015260208152613e3b565b806040614c59848761426a565b510152614c7a6040805167b6cdd220a716dec6602082015260208152613e3b565b6040614c86838761426a565b510152614ca760408051679889b4a2ae3f55ef602082015260208152613e3b565b614cc5604080516723d700046f77cbf6602082015260208152613e3b565b614ccf818361426a565b51600954600160401b81101561146657806001614cf192016009556009614251565b919091614e2357604081600292518455602081015160018501550151910155614d2e60408051679f5a0ff5821fb90c602082015260208152613e3b565b614d4c6040805167ec58516ac4b4e469602082015260208152613e3b565b614d56818461426a565b51600a54600160401b81101561146657806001614d789201600a55600a614251565b919091614e2357604081600292518455602081015160018501550151910155614db560408051670a1f34ac6701b616602082015260208152613e3b565b614dd360408051677e2611b0ac8df37d602082015260208152613e3b565b614ddd818561426a565b5190600b54600160401b81101561146657806001614e009201600b55600b614251565b614e23576002604084600195518455602081015186850155015191015501614a82565b634e487b7160e01b5f525f60045260245ffd5b8060030290600382040361415657600b5f527f0175b7a638427703f0dbe7bb9bbf987a2551717b34e79f33b5b1008d1fa01db9908101905b818110614e7b5750614a43565b6003905f81555f60018201555f600282015501614e6e565b8060030290600382040361415657600a5f527fc65a7bb8d6351c1cf70c95a316cc6a92839c986682d98bc35f958f4883f9d2a8908101905b818110614ed85750614a17565b6003905f81555f60018201555f600282015501614ecb565b806003029060038204036141565760095f527f6e1540171b6c0c960b71a7020d9f60077f6af931a8bbf590da0223dacf75c7af908101905b818110614f3557506149eb565b6003905f81555f60018201555f600282015501614f28565b926149c0565b50614f756040805167903cbe1bb9c2f0e360c01b602082015260208152613e3b565b60016149b6565b50614f9e60408051672639cc17bbb666ef60c01b602082015260208152613e3b565b5f6149b0565b600190614fc56040805167285397fec2f65390602082015260208152613e3b565b614fe36040805167937f7c476523e841602082015260208152613e3b565b614fec8161411b565b90549060031b1c615011604080516743b163b11e4e5731602082015260208152613e3b565b61502e604080516617cc392888052a602082015260208152613e3b565b805f526005602052600860405f2061505a604080516711d047d3e72cc20f602082015260208152613e3b565b60068101546040519061506c82613e20565b84825260208201525f6040820152615084858b61426a565b5261508f848a61426a565b506150ae6040805167bbc9539a08e896b9602082015260208152613e3b565b6007810154604051906150c082613e20565b84825260208201525f60408201526150d8858961426a565b526150e3848861426a565b506151026040805167b5b5be22b883c1b3602082015260208152613e3b565b01546040519161511183613e20565b825260208201525f6040820152615128828761426a565b52615133818661426a565b5001614961565b60ff5f5160206152245f395f51905f525460401c161561515657565b631afcd79f60e31b5f5260045ffd5b90615189575080511561517a57602081519101fd5b63d6bda27560e01b5f5260045ffd5b815115806151ba575b61519a575090565b639996b31560e01b5f9081526001600160a01b0391909116600452602490fd5b50803b1561519256fe360894a13ba1a3210667c828492db98dca3e2076cc3735a920a3ca505d382bbc02dd7bc7dec4dceedda775e58dd541e08a116c6c53815c0bd028192f7b626800cd5ed15c6e187e77e9aee88184c21f4f2182ab5827cb3b7e07fbedcd63f03300f0c57e16840df040f15088dc2f81fe391c3923bec73e23a9662efc9c229c6a00a26469706673582212204ffa949e4ad32f662e2aebd93454fafc0cdf4709696fc1e2e18895ef5e5d432b64736f6c634300081c0033f0c57e16840df040f15088dc2f81fe391c3923bec73e23a9662efc9c229c6a00",
  "linkReferences": {},
  "deployedLinkReferences": {}
}