{
  "_format": "hh-sol-artifact-1",
  "contractName": "VarityWalletFactory",
  "sourceName": "contracts/VarityWalletFactory.sol",
  "abi": [
    {
      "inputs": [],
      "stateMutability": "nonpayable",
      "type": "constructor"
    },
    {
      "inputs": [
        {
          "internalType": "address",
          "name": "target",
          "type": "address"
        }
      ],
      "name": "AddressEmptyCode",
      "type": "error"
    },
    {
      "inputs": [],
      "name": "Create2EmptyBytecode",
      "type": "error"
    },
    {
      "inputs": [
        {
          "internalType": "address",
          "name": "implementation",
          "type": "address"
        }
      ],
      "name": "ERC1967InvalidImplementation",
      "type": "error"
    },
    {
      "inputs": [],
      "name": "ERC1967NonPayable",
      "type": "error"
    },
    {
      "inputs": [],
      "name": "FailedCall",
      "type": "error"
    },
    {
      "inputs": [],
      "name": "FailedDeployment",
      "type": "error"
    },
    {
      "inputs": [
        {
          "internalType": "uint256",
          "name": "balance",
          "type": "uint256"
        },
        {
          "internalType": "uint256",
          "name": "needed",
          "type": "uint256"
        }
      ],
      "name": "InsufficientBalance",
      "type": "error"
    },
    {
      "inputs": [],
      "name": "InvalidInitialization",
      "type": "error"
    },
    {
      "inputs": [],
      "name": "NotInitializing",
      "type": "error"
    },
    {
      "inputs": [
        {
          "internalType": "address",
          "name": "owner",
          "type": "address"
        }
      ],
      "name": "OwnableInvalidOwner",
      "type": "error"
    },
    {
      "inputs": [
        {
          "internalType": "address",
          "name": "account",
          "type": "address"
        }
      ],
      "name": "OwnableUnauthorizedAccount",
      "type": "error"
    },
    {
      "inputs": [],
      "name": "UUPSUnauthorizedCallContext",
      "type": "error"
    },
    {
      "inputs": [
        {
          "internalType": "bytes32",
          "name": "slot",
          "type": "bytes32"
        }
      ],
      "name": "UUPSUnsupportedProxiableUUID",
      "type": "error"
    },
    {
      "anonymous": false,
      "inputs": [
        {
          "indexed": false,
          "internalType": "uint64",
          "name": "version",
          "type": "uint64"
        }
      ],
      "name": "Initialized",
      "type": "event"
    },
    {
      "anonymous": false,
      "inputs": [
        {
          "indexed": true,
          "internalType": "address",
          "name": "previousOwner",
          "type": "address"
        },
        {
          "indexed": true,
          "internalType": "address",
          "name": "newOwner",
          "type": "address"
        }
      ],
      "name": "OwnershipTransferred",
      "type": "event"
    },
    {
      "anonymous": false,
      "inputs": [
        {
          "indexed": true,
          "internalType": "address",
          "name": "implementation",
          "type": "address"
        }
      ],
      "name": "Upgraded",
      "type": "event"
    },
    {
      "anonymous": false,
      "inputs": [
        {
          "indexed": true,
          "internalType": "address",
          "name": "wallet",
          "type": "address"
        },
        {
          "indexed": true,
          "internalType": "address",
          "name": "owner",
          "type": "address"
        },
        {
          "indexed": true,
          "internalType": "bytes32",
          "name": "salt",
          "type": "bytes32"
        },
        {
          "indexed": false,
          "internalType": "uint256",
          "name": "timestamp",
          "type": "uint256"
        }
      ],
      "name": "WalletCreated",
      "type": "event"
    },
    {
      "anonymous": false,
      "inputs": [
        {
          "indexed": true,
          "internalType": "address",
          "name": "wallet",
          "type": "address"
        },
        {
          "indexed": true,
          "internalType": "address",
          "name": "paymaster",
          "type": "address"
        },
        {
          "indexed": false,
          "internalType": "uint256",
          "name": "gasBudget",
          "type": "uint256"
        }
      ],
      "name": "WalletSponsored",
      "type": "event"
    },
    {
      "inputs": [],
      "name": "UPGRADE_INTERFACE_VERSION",
      "outputs": [
        {
          "internalType": "string",
          "name": "",
          "type": "string"
        }
      ],
      "stateMutability": "view",
      "type": "function"
    },
    {
      "inputs": [
        {
          "internalType": "address",
          "name": "owner",
          "type": "address"
        },
        {
          "internalType": "bytes32",
          "name": "salt",
          "type": "bytes32"
        }
      ],
      "name": "createWallet",
      "outputs": [
        {
          "internalType": "address",
          "name": "walletAddress",
          "type": "address"
        }
      ],
      "stateMutability": "nonpayable",
      "type": "function"
    },
    {
      "inputs": [],
      "name": "defaultGasBudget",
      "outputs": [
        {
          "internalType": "uint256",
          "name": "",
          "type": "uint256"
        }
      ],
      "stateMutability": "view",
      "type": "function"
    },
    {
      "inputs": [
        {
          "internalType": "address",
          "name": "owner",
          "type": "address"
        },
        {
          "internalType": "bytes32",
          "name": "salt",
          "type": "bytes32"
        }
      ],
      "name": "getWalletAddress",
      "outputs": [
        {
          "internalType": "address",
          "name": "",
          "type": "address"
        }
      ],
      "stateMutability": "view",
      "type": "function"
    },
    {
      "inputs": [
        {
          "internalType": "address",
          "name": "_paymasterAddress",
          "type": "address"
        },
        {
          "internalType": "uint256",
          "name": "_defaultGasBudget",
          "type": "uint256"
        }
      ],
      "name": "initialize",
      "outputs": [],
      "stateMutability": "nonpayable",
      "type": "function"
    },
    {
      "inputs": [
        {
          "internalType": "address",
          "name": "",
          "type": "address"
        }
      ],
      "name": "isSponsoredWallet",
      "outputs": [
        {
          "internalType": "bool",
          "name": "",
          "type": "bool"
        }
      ],
      "stateMutability": "view",
      "type": "function"
    },
    {
      "inputs": [],
      "name": "owner",
      "outputs": [
        {
          "internalType": "address",
          "name": "",
          "type": "address"
        }
      ],
      "stateMutability": "view",
      "type": "function"
    },
    {
      "inputs": [
        {
          "internalType": "address",
          "name": "",
          "type": "address"
        }
      ],
      "name": "ownerToWallet",
      "outputs": [
        {
          "internalType": "address",
          "name": "",
          "type": "address"
        }
      ],
      "stateMutability": "view",
      "type": "function"
    },
    {
      "inputs": [],
      "name": "paymasterAddress",
      "outputs": [
        {
          "internalType": "address",
          "name": "",
          "type": "address"
        }
      ],
      "stateMutability": "view",
      "type": "function"
    },
    {
      "inputs": [],
      "name": "proxiableUUID",
      "outputs": [
        {
          "internalType": "bytes32",
          "name": "",
          "type": "bytes32"
        }
      ],
      "stateMutability": "view",
      "type": "function"
    },
    {
      "inputs": [],
      "name": "renounceOwnership",
      "outputs": [],
      "stateMutability": "nonpayable",
      "type": "function"
    },
    {
      "inputs": [
        {
          "internalType": "address",
          "name": "newOwner",
          "type": "address"
        }
      ],
      "name": "transferOwnership",
      "outputs": [],
      "stateMutability": "nonpayable",
      "type": "function"
    },
    {
      "inputs": [
        {
          "internalType": "uint256",
          "name": "newBudget",
          "type": "uint256"
        }
      ],
      "name": "updateGasBudget",
      "outputs": [],
      "stateMutability": "nonpayable",
      "type": "function"
    },
    {
      "inputs": [
        {
          "internalType": "address",
          "name": "newPaymaster",
          "type": "address"
        }
      ],
      "name": "updatePaymaster",
      "outputs": [],
      "stateMutability": "nonpayable",
      "type": "function"
    },
    {
      "inputs": [
        {
          "internalType": "address",
          "name": "newImplementation",
          "type": "address"
        },
        {
          "internalType": "bytes",
          "name": "data",
          "type": "bytes"
        }
      ],
      "name": "upgradeToAndCall",
      "outputs": [],
      "stateMutability": "payable",
      "type": "function"
    },
    {
      "inputs": [
        {
          "internalType": "address",
          "name": "",
          "type": "address"
        }
      ],
      "name": "walletToOwner",
      "outputs": [
        {
          "internalType": "address",
          "name": "",
          "type": "address"
        }
      ],
      "stateMutability": "view",
      "type": "function"
    }
  ],
  "bytecode": "0x60a0806040523461011e57604061002b9130608052670fd97b56346df254602082015260208152610122565b61004960408051678403c0fe9da42f3c602082015260208152610122565b6100676040805167ddf52729580e8bf0602082015260208152610122565b5f5160206125ea5f395f51905f525460ff8160401c1661010f576002600160401b03196001600160401b038216016100b9575b604051612490908161015a8239608051818181610d840152610e540152f35b6001600160401b0319166001600160401b039081175f5160206125ea5f395f51905f52556040519081527fc7f505b2f371ae2175ee4913f4499e1f2633a7b5936321eed1cdaeb6115181d290602090a15f61009a565b63f92ee8a960e01b5f5260045ffd5b5f80fd5b601f909101601f19168101906001600160401b0382119082101761014557604052565b634e487b7160e01b5f52604160045260245ffdfe6080806040526004361015610012575f80fd5b5f905f3560e01c90816318ffe25014611065575080634f1ef28614610dd857806352d1902d14610d7257806354cb0ecd14610d32578063715018a614610ccb57806378ee575614610c325780638a05723714610c155780638da5cb5b14610be15780639c1a5ab414610ba4578063ad3cb1cc14610b46578063b20ca818146105a7578063cd6dc6871461029d578063d9ed1fee14610276578063daf6a3f61461013e578063ec51b0a2146100fd5763f2fde38b146100ce575f80fd5b346100fa5760203660031901126100fa576100f76100ea61125a565b6100f2611373565b611302565b80f35b80fd5b50346100fa5760203660031901126100fa576020906001600160a01b0361012261125a565b16815260028252604060018060a01b0391205416604051908152f35b50346100fa5760203660031901126100fa5761015861125a565b6101766040805167624ace5fde0fe351602082015260208152611270565b61017e611373565b61019c6040805167fd34b70c7793b2eb602082015260208152611270565b6101ba6040805167b9f13955ef1cfb57602082015260208152611270565b6101d86040805167c9a44254fc48041e602082015260208152611270565b6101f66040805167720155abc92f702a602082015260208152611270565b61021460408051678ffc060ee79deabc602082015260208152611270565b6001600160a01b03166102288115156112c2565b6102466040805167d8a43af7e1915b7d602082015260208152611270565b6102646040805167633d4ec28e3d384c602082015260208152611270565b81546001600160a01b03191617815580f35b50346100fa57806003193601126100fa57546040516001600160a01b039091168152602090f35b50346100fa5760403660031901126100fa576102b761125a565b6102d56040805167ddefc166a161310e602082015260208152611270565b5f51602061243b5f395f51905f52549060ff8260401c16159167ffffffffffffffff81168015908161059f575b6001149081610595575b15908161058c575b5061057d5767ffffffffffffffff1981166001175f51602061243b5f395f51905f525582610551575b5061035c6040805167ea60283ce6785379602082015260208152611270565b61037a60408051675b57da91d9a3c2e0602082015260208152611270565b6103986040805167f7893454a90920dd602082015260208152611270565b6103b66040805167f3bb769b50f06940602082015260208152611270565b6103be6113a6565b6103c66113a6565b6103cf33611302565b6103ed604080516752dee26731d8a7c2602082015260208152611270565b61040b604080516787a7a485d9279260602082015260208152611270565b6104136113a6565b6104316040805167b8018f3a3d9ea405602082015260208152611270565b61044f6040805167a4937196e950c9b8602082015260208152611270565b61046d6040805167980adffd5187ee9a602082015260208152611270565b6001600160a01b03166104818115156112c2565b61049f6040805167fdc89b3e2cc8ee82602082015260208152611270565b6104bd60408051671ef490341efeebf9602082015260208152611270565b6001600160601b0360a01b8354161782556104ec6040805167a1c5b78caff387a1602082015260208152611270565b6024356001556104f95780f35b68ff0000000000000000195f51602061243b5f395f51905f5254165f51602061243b5f395f51905f52557fc7f505b2f371ae2175ee4913f4499e1f2633a7b5936321eed1cdaeb6115181d2602060405160018152a180f35b68ffffffffffffffffff191668010000000000000001175f51602061243b5f395f51905f52555f61033d565b63f92ee8a960e01b8452600484fd5b9050155f610314565b303b15915061030c565b849150610302565b5034610ab2576040366003190112610ab2576105c161125a565b90602435906105e46040805167e5ce28836bb7b9aa602082015260208152611270565b61060260408051674c293e26c9483296602082015260208152611270565b61062060408051675d488bdbd76846dc602082015260208152611270565b61063e6040805167ff5493023713936c602082015260208152611270565b6001600160a01b038316928315610b115761066d6040805167ed654d6eb7badcdf602082015260208152611270565b61068b604080516753ff7ed6c7433856602082015260208152611270565b6106a96040805167424260618bc1fbc6602082015260208152611270565b6106c76040805167d6f2a346fc9b1bac602082015260208152611270565b5f848152600360205260409020546001600160a01b0316610ad4576107ca90610704604080516713983f34140147b3602082015260208152611270565b61072260408051673bcfa9e657315756602082015260208152611270565b610740604080516718d37fd4c7244304602082015260208152611270565b610809610fcb60206040519361075882840186611270565b828552818501926114308439610780604080516744c1aee74996a99e85820152848152611270565b61079c60408051678545da023978e94685820152848152611270565b5f54604080516001600160a01b0393841685820190815293909216602084015290966107d891889190840190565b03601f198101885287611270565b60405195869383850196518091885e840190838201905f8252519283915e01015f815203601f198101845283611270565b6108276040805167d59b9bcb18fbe2d8602082015260208152611270565b815115610ac557839151905ff53d1519811516610aa7576001600160a01b0316918215610ab65761086c6040805167369d1e22309e467b602082015260208152611270565b825f52600260205260405f20846001600160601b0360a01b8254161790556108a860408051675750208e7cd19552602082015260208152611270565b835f52600360205260405f20836001600160601b0360a01b8254161790556108e46040805167809d62ea8ba20069602082015260208152611270565b825f52600460205260405f20600160ff1982541617905561091960408051679bf435d69cf0dd8a602082015260208152611270565b61093760408051674eddf396f1d9d41d602082015260208152611270565b60018060a01b035f541693600154853b15610ab2575f9560448792604051988993849263083c817d60e31b84528a600485015260248401525af1948515610aa757602095610a92575b5061099d60408051679a48f3cc38d9c07188820152878152611270565b6109b960408051675f2244758b05ed6f88820152878152611270565b837f65cfcc449799a5c50fc24a28b8131e6feff4953e0834af69bf3e71f343a3d5f386604051428152a46109ff6040805167b629eab4f9d0c56c86820152858152611270565b610a1b6040805167876b2dbf15b3987386820152858152611270565b60018060a01b03905416817faa6f0cc70be7256e75dd55fb2ab431486a553619889dc84dde49470445bd0bae84600154604051908152a3610a6e6040805167754d3f0a05e8132885820152848152611270565b610a8a604080516793c8e31f2b97523a85820152848152611270565b604051908152f35b610a9f9193505f90611270565b5f915f610980565b6040513d5f823e3d90fd5b5f80fd5b63b06ebf3d60e01b5f5260045ffd5b631328927760e21b5f5260045ffd5b60405162461bcd60e51b815260206004820152601560248201527457616c6c657420616c72656164792065786973747360581b6044820152606490fd5b60405162461bcd60e51b815260206004820152600d60248201526c24b73b30b634b21037bbb732b960991b6044820152606490fd5b34610ab2575f366003190112610ab2576040805190610b658183611270565b600582526020820191640352e302e360dc1b83528151928391602083525180918160208501528484015e5f828201840152601f01601f19168101030190f35b34610ab2576020366003190112610ab2576001600160a01b03610bc561125a565b165f526004602052602060ff60405f2054166040519015158152f35b34610ab2575f366003190112610ab2575f5160206123fb5f395f51905f52546040516001600160a01b039091168152602090f35b34610ab2575f366003190112610ab2576020600154604051908152f35b34610ab2576020366003190112610ab257610c616040805167b8d31da0fab13d75602082015260208152611270565b610c69611373565b610c87604080516746f146b9c1844845602082015260208152611270565b610ca5604080516713e69f5d9092e608602082015260208152611270565b610cc36040805167d126d8c63994a937602082015260208152611270565b600435600155005b34610ab2575f366003190112610ab257610ce3611373565b5f5160206123fb5f395f51905f5280546001600160a01b031981169091555f906001600160a01b03167f8be0079c531659141344cd1fd0a4f28419497f9722a3daafe3b4186f6b6457e08280a3005b34610ab2576020366003190112610ab2576001600160a01b03610d5361125a565b165f526003602052602060018060a01b0360405f205416604051908152f35b34610ab2575f366003190112610ab2577f00000000000000000000000000000000000000000000000000000000000000006001600160a01b03163003610dc95760206040515f51602061241b5f395f51905f528152f35b63703e46dd60e11b5f5260045ffd5b6040366003190112610ab257610dec61125a565b6024359067ffffffffffffffff8211610ab25736602383011215610ab257816004013590610e19826112a6565b91610e276040519384611270565b80835260208301933660248383010111610ab257815f926024602093018737840101526001600160a01b037f000000000000000000000000000000000000000000000000000000000000000016308114908115611043575b50610dc957610ea26040805167511dd8800bf868bd602082015260208152611270565b610eaa611373565b610ec86040805167ad309c3538d9c455602082015260208152611270565b610ee66040805167a7c175b5400d54a9602082015260208152611270565b6040516352d1902d60e01b81526001600160a01b0382169390602081600481885afa5f918161100f575b50610f285784634c9c8ce360e01b5f5260045260245ffd5b805f51602061241b5f395f51905f52869203610ffd5750823b15610feb575f51602061241b5f395f51905f5280546001600160a01b031916821790557fbc7cd75a20ee27fd9adebab32041f755214dbc6bffa90cc0225b39da2e5c2d3b5f80a2825115610fd2575f8091610fc8945190845af43d15610fca573d91610fac836112a6565b92610fba6040519485611270565b83523d5f602085013e6113d1565b005b6060916113d1565b50505034610fdc57005b63b398979f60e01b5f5260045ffd5b634c9c8ce360e01b5f5260045260245ffd5b632a87526960e21b5f5260045260245ffd5b9091506020813d60201161103b575b8161102b60209383611270565b81010312610ab257519086610f10565b3d915061101e565b5f51602061241b5f395f51905f52546001600160a01b03161415905084610e7f565b34610ab2576040366003190112610ab25760209061109c604061108661125a565b92678a80932ffd7d202385820152848152611270565b6110b860408051670442e9960c6e99fc85820152848152611270565b6110d46040805167d02d2f25838d0da985820152848152611270565b61116061119f610fcb84604051946110ee82840187611270565b8286528186019261143084396111166040805167c186b8d59435931c85820152848152611270565b611132604080516707800f72aebf255a85820152848152611270565b5f54604080516001600160a01b03938416858201908152939092166020840152909561116e91879190840190565b03601f198101875286611270565b60405194859383850197518091895e840190838201905f8252519283915e01015f815203601f198101835282611270565b6111bb60408051677f0488963919a09a86820152858152611270565b6111d7604080516761a8dcca0f88db8e86820152858152611270565b5190206040518281019160ff60f81b83523060601b6021830152602435603583015260558201526055815261120d607582611270565b51902061122c6040805167048508533fc9b35185820152848152611270565b61124860408051678f4fe907c76ff3b285820152848152611270565b6040516001600160a01b039091168152f35b600435906001600160a01b0382168203610ab257565b90601f8019910116810190811067ffffffffffffffff82111761129257604052565b634e487b7160e01b5f52604160045260245ffd5b67ffffffffffffffff811161129257601f01601f191660200190565b156112c957565b60405162461bcd60e51b815260206004820152601160248201527024b73b30b634b2103830bcb6b0b9ba32b960791b6044820152606490fd5b6001600160a01b03168015611360575f5160206123fb5f395f51905f5280546001600160a01b0319811683179091556001600160a01b03167f8be0079c531659141344cd1fd0a4f28419497f9722a3daafe3b4186f6b6457e05f80a3565b631e4fbdf760e01b5f525f60045260245ffd5b5f5160206123fb5f395f51905f52546001600160a01b0316330361139357565b63118cdaa760e01b5f523360045260245ffd5b60ff5f51602061243b5f395f51905f525460401c16156113c257565b631afcd79f60e31b5f5260045ffd5b906113f557508051156113e657602081519101fd5b63d6bda27560e01b5f5260045ffd5b81511580611426575b611406575090565b639996b31560e01b5f9081526001600160a01b0391909116600452602490fd5b50803b156113fe56fe608080604052346100de57604081610fcb803803809161001f82856100e2565b8339810103126100de5761003e602061003783610119565b9201610119565b9061005d6040805167610a1c657d4ef50d6020820152602081526100e2565b61007b604080516715cc23fc8fc1fca36020820152602081526100e2565b60018060a01b031660018060a01b03195f5416175f556100af6040805167e04a272bd1cff6a06020820152602081526100e2565b600180546001600160a01b0319166001600160a01b0392909216919091179055604051610e9d908161012e8239f35b5f80fd5b601f909101601f19168101906001600160401b0382119082101761010557604052565b634e487b7160e01b5f52604160045260245ffd5b51906001600160a01b03821682036100de5756fe6080806040526004361015610066575b50361561001a575f80fd5b6100386040805167b03974e6c48a2622602082015260208152610ceb565b6040513481527f88a5966d370b9919b20f3e2c13ff65706f196a4e32cc2c12bf57088f8852587460203392a2005b5f3560e01c90816316e4cbf914610c815750806347e1da2a146107d75780638da5cb5b146107b0578063affed0e014610793578063b61d27f614610362578063d087d288146102eb5763f2fde38b146100bf575f61000f565b346102e75760203660031901126102e7576100d8610cd5565b6100f6604080516745e1391b0f32d811602082015260208152610ceb565b61011460408051672b2ac937b5a8c533602082015260208152610ceb565b6101326040805167f12a5fe0ee7b7539602082015260208152610ceb565b6101506040805167c277bb3ac4e64c21602082015260208152610ceb565b61016e6040805167b595051a237dc9e8602082015260208152610ceb565b5f5490610185336001600160a01b03841614610d21565b6101a360408051672a5349b40a7fd45c602082015260208152610ceb565b6101c160408051671496ae9577328294602082015260208152610ceb565b6101df604080516719aaa6dc6dcc7a46602082015260208152610ceb565b6101fd6040805167a08adfef718140c1602082015260208152610ceb565b61021b60408051675ad10afa2c76e9bd602082015260208152610ceb565b6102396040805167ac08bde1a6fe9ba4602082015260208152610ceb565b610257604080516767455308a72552e8602082015260208152610ceb565b6001600160a01b03169081156102b2576102856040805167e698cc8c8ea22aa2602082015260208152610ceb565b6102a3604080516726b2b0e7af20eec1602082015260208152610ceb565b6001600160a01b031916175f55005b60405162461bcd60e51b815260206004820152600d60248201526c24b73b30b634b21037bbb732b960991b6044820152606490fd5b5f80fd5b346102e7575f3660031901126102e7576103196040805167441c82133719f79b602082015260208152610ceb565b6103376040805167c74839675cca422f602082015260208152610ceb565b610355604080516748afd2ad75a1ba7c602082015260208152610ceb565b6020600254604051908152f35b346102e75760603660031901126102e75761037b610cd5565b6024356044359167ffffffffffffffff83116102e757366023840112156102e75782600401359067ffffffffffffffff82116102e757602484019360248336920101116102e7576103e060408051678368d1f1e4365807602082015260208152610ceb565b6103fe60408051672b2ac937b5a8c533602082015260208152610ceb565b61041c6040805167f12a5fe0ee7b7539602082015260208152610ceb565b61043a6040805167c277bb3ac4e64c21602082015260208152610ceb565b6104586040805167b595051a237dc9e8602082015260208152610ceb565b61046c60018060a01b035f54163314610d21565b61048a60408051672a5349b40a7fd45c602082015260208152610ceb565b6104a860408051671496ae9577328294602082015260208152610ceb565b6104c66040805167a88f9e83c9c70a47602082015260208152610ceb565b6104e460408051677832bf757d5df87e602082015260208152610ceb565b6105026040805167d3726dd79d1d7e05602082015260208152610ceb565b61051f604080516692af1761883cd3602082015260208152610ceb565b61053d6040805167bee21e56b652561d602082015260208152610ceb565b6001600160a01b03811690811561075d575f809161056f604080516763610faa5560ebef602082015260208152610ceb565b61058d604080516717e2fc92d3656da4602082015260208152610ceb565b6105ab6040805167d0a2fbbbe09ae56b602082015260208152610ceb565b60405185888237868187810185815203925af1916105c7610dd3565b926105e66040805167b5b15de963dcf981602082015260208152610ceb565b61060460408051677038ef8a5c49a88e602082015260208152610ceb565b610622604080516772086ef72ae13cd6602082015260208152610ceb565b15610723576020946040946106be7f862c2fee80ff12bbe85a7ba5ef3a95eefd276d7aad48da241d19fd23378f68e59361066d88805167ad7a0bfddff21feb8c8201528b8152610ceb565b61068888805167ccc8307107edda5d8c8201528b8152610ceb565b6106a388805167d425bf8597dffdf48c8201528b8152610ceb565b600254906106b082610e12565b600255885194859485610e34565b0390a26106dc82805167bb3d70f8dfb275b886820152858152610ceb565b6106f7828051679797ab304dcc189986820152858152610ceb565b815192839181835280519182918282860152018484015e5f828201840152601f01601f19168101030190f35b60405162461bcd60e51b8152602060048201526012602482015271151c985b9cd858dd1a5bdb8819985a5b195960721b6044820152606490fd5b60405162461bcd60e51b815260206004820152600e60248201526d125b9d985b1a59081d185c99d95d60921b6044820152606490fd5b346102e7575f3660031901126102e7576020600254604051908152f35b346102e7575f3660031901126102e7575f546040516001600160a01b039091168152602090f35b346102e75760603660031901126102e75760043567ffffffffffffffff81116102e757610808903690600401610ca4565b60243567ffffffffffffffff81116102e757610828903690600401610ca4565b9260443567ffffffffffffffff81116102e757610849903690600401610ca4565b91909261086a6040805167f7d2f4047c1e6506602082015260208152610ceb565b61088860408051672b2ac937b5a8c533602082015260208152610ceb565b6108a66040805167f12a5fe0ee7b7539602082015260208152610ceb565b6108c46040805167c277bb3ac4e64c21602082015260208152610ceb565b6108e26040805167b595051a237dc9e8602082015260208152610ceb565b6108f660018060a01b035f54163314610d21565b61091460408051672a5349b40a7fd45c602082015260208152610ceb565b61093260408051671496ae9577328294602082015260208152610ceb565b6109506040805167d1b54d2ae00a6c39602082015260208152610ceb565b61096e60408051673d857f6f97cd385d602082015260208152610ceb565b61098c60408051670d94c770b1b1ecce602082015260208152610ceb565b6109aa604080516735238ab0006d68e4602082015260208152610ceb565b6109c860408051679c04c4a0899291ba602082015260208152610ceb565b85851480610c78575b15610c3b576109f4604080516701a40d688ba06087602082015260208152610ceb565b610a126040805167154b2569a954e3e8602082015260208152610ceb565b610a3060408051677ec7f93699c3e4e6602082015260208152610ceb565b5f5b858110610a3b57005b610a596040805167f5249a49a417e050602082015260208152610ceb565b610a776040805167fbfb940264373c01602082015260208152610ceb565b5f80610a8c610a87848a88610d59565b610d7d565b610a97848b87610d59565b35610aa385898b610d91565b9190826040519384928337810185815203925af1610abf610dd3565b50610ade604080516719a2ffb6a34dd3e6602082015260208152610ceb565b610afc604080516720b703a1bbeb0894602082015260208152610ceb565b610b1a60408051671c034b9ae497fde4602082015260208152610ceb565b15610bf657600190610b406040805167c44a0172c073eefc602082015260208152610ceb565b610b5e6040805167a1b8e2885d38d5a6602082015260208152610ceb565b610b7c60408051676807ecb890f1c9c8602082015260208152610ceb565b610b8a610a87828987610d59565b7f862c2fee80ff12bbe85a7ba5ef3a95eefd276d7aad48da241d19fd23378f68e5610bed610bb9848c88610d59565b3592610bc6858a8c610d91565b60029391935490610bd682610e12565b6002556040519485948a8060a01b03169785610e34565b0390a201610a32565b60405162461bcd60e51b815260206004820152601860248201527f4261746368207472616e73616374696f6e206661696c656400000000000000006044820152606490fd5b60405162461bcd60e51b8152602060048201526015602482015274082e4e4c2f240d8cadccee8d040dad2e6dac2e8c6d605b1b6044820152606490fd5b508286146109d1565b346102e7575f3660031901126102e7576001546001600160a01b03168152602090f35b9181601f840112156102e75782359167ffffffffffffffff83116102e7576020808501948460051b0101116102e757565b600435906001600160a01b03821682036102e757565b90601f8019910116810190811067ffffffffffffffff821117610d0d57604052565b634e487b7160e01b5f52604160045260245ffd5b15610d2857565b60405162461bcd60e51b81526020600482015260096024820152682737ba1037bbb732b960b91b6044820152606490fd5b9190811015610d695760051b0190565b634e487b7160e01b5f52603260045260245ffd5b356001600160a01b03811681036102e75790565b9190811015610d695760051b81013590601e19813603018212156102e757019081359167ffffffffffffffff83116102e75760200182360381136102e7579190565b3d15610e0d573d9067ffffffffffffffff8211610d0d5760405191610e02601f8201601f191660200184610ceb565b82523d5f602084013e565b606090565b5f198114610e205760010190565b634e487b7160e01b5f52601160045260245ffd5b94939280604093608093885260606020890152816060890152838801375f828288010152601f801991011685010193015256fea2646970667358221220fd878c797c305791c745a7695c1042f95d59c9d332053374ec1c2cb6567d3a6d64736f6c634300081c00339016d09d72d40fdae2fd8ceac6b6234c7706214fd39c1cd1e609a0528c199300360894a13ba1a3210667c828492db98dca3e2076cc3735a920a3ca505d382bbcf0c57e16840df040f15088dc2f81fe391c3923bec73e23a9662efc9c229c6a00a26469706673582212203c033f5a18d8950d975d43f5ebef4edeca0cd81237ef4e29bb7e0025760f892b64736f6c634300081c0033f0c57e16840df040f15088dc2f81fe391c3923bec73e23a9662efc9c229c6a00",
  "linkReferences": {},
  "deployedLinkReferences": {}
}